{
	"contracts/LiquidityPool.sol": {
		"LiquidityPool": {
			"abi": [
				{
					"inputs": [
						{
							"internalType": "uint256",
							"name": "amountOfToken1",
							"type": "uint256"
						},
						{
							"internalType": "uint256",
							"name": "amountOfToken2",
							"type": "uint256"
						}
					],
					"name": "addToPool",
					"outputs": [],
					"stateMutability": "nonpayable",
					"type": "function"
				},
				{
					"inputs": [
						{
							"internalType": "contract IERC20",
							"name": "_token1",
							"type": "address"
						},
						{
							"internalType": "contract IERC20",
							"name": "_token2",
							"type": "address"
						}
					],
					"name": "initializeTokens",
					"outputs": [],
					"stateMutability": "nonpayable",
					"type": "function"
				},
				{
					"inputs": [
						{
							"internalType": "uint256",
							"name": "amountIn",
							"type": "uint256"
						},
						{
							"internalType": "contract IERC20",
							"name": "fromToken",
							"type": "address"
						},
						{
							"internalType": "contract IERC20",
							"name": "toToken",
							"type": "address"
						}
					],
					"name": "swapTokens",
					"outputs": [],
					"stateMutability": "nonpayable",
					"type": "function"
				},
				{
					"inputs": [
						{
							"internalType": "uint256",
							"name": "amountOfToken1",
							"type": "uint256"
						},
						{
							"internalType": "uint256",
							"name": "amountOfToken2",
							"type": "uint256"
						}
					],
					"name": "withdrawFromPool",
					"outputs": [],
					"stateMutability": "nonpayable",
					"type": "function"
				}
			],
			"devdoc": {
				"kind": "dev",
				"methods": {},
				"version": 1
			},
			"evm": {
				"assembly": "    /* \"contracts/LiquidityPool.sol\":121:1975  contract LiquidityPool{... */\n  mstore(0x40, 0x80)\n  callvalue\n  dup1\n  iszero\n  tag_1\n  jumpi\n  0x00\n  dup1\n  revert\ntag_1:\n  pop\n  dataSize(sub_0)\n  dup1\n  dataOffset(sub_0)\n  0x00\n  codecopy\n  0x00\n  return\nstop\n\nsub_0: assembly {\n        /* \"contracts/LiquidityPool.sol\":121:1975  contract LiquidityPool{... */\n      mstore(0x40, 0x80)\n      callvalue\n      dup1\n      iszero\n      tag_1\n      jumpi\n      0x00\n      dup1\n      revert\n    tag_1:\n      pop\n      jumpi(tag_2, lt(calldatasize, 0x04))\n      shr(0xe0, calldataload(0x00))\n      dup1\n      0x1b542d74\n      eq\n      tag_3\n      jumpi\n      dup1\n      0x7364fae8\n      eq\n      tag_4\n      jumpi\n      dup1\n      0xef1b3166\n      eq\n      tag_5\n      jumpi\n      dup1\n      0xf70d1d98\n      eq\n      tag_6\n      jumpi\n    tag_2:\n      0x00\n      dup1\n      revert\n        /* \"contracts/LiquidityPool.sol\":271:390  function initializeTokens(IERC20 _token1, IERC20 _token2) public{... */\n    tag_3:\n      tag_7\n      0x04\n      dup1\n      calldatasize\n      sub\n      dup2\n      add\n      swap1\n      tag_8\n      swap2\n      swap1\n      tag_9\n      jump\t// in\n    tag_8:\n      tag_10\n      jump\t// in\n    tag_7:\n      stop\n        /* \"contracts/LiquidityPool.sol\":398:769  function addToPool(uint amountOfToken1,uint amountOfToken2)public{... */\n    tag_4:\n      tag_11\n      0x04\n      dup1\n      calldatasize\n      sub\n      dup2\n      add\n      swap1\n      tag_12\n      swap2\n      swap1\n      tag_13\n      jump\t// in\n    tag_12:\n      tag_14\n      jump\t// in\n    tag_11:\n      stop\n        /* \"contracts/LiquidityPool.sol\":777:1122  function withdrawFromPool(uint amountOfToken1,uint amountOfToken2) public {... */\n    tag_5:\n      tag_15\n      0x04\n      dup1\n      calldatasize\n      sub\n      dup2\n      add\n      swap1\n      tag_16\n      swap2\n      swap1\n      tag_13\n      jump\t// in\n    tag_16:\n      tag_17\n      jump\t// in\n    tag_15:\n      stop\n        /* \"contracts/LiquidityPool.sol\":1130:1968  function swapTokens(uint amountIn, IERC20 fromToken, IERC20 toToken) external {... */\n    tag_6:\n      tag_18\n      0x04\n      dup1\n      calldatasize\n      sub\n      dup2\n      add\n      swap1\n      tag_19\n      swap2\n      swap1\n      tag_20\n      jump\t// in\n    tag_19:\n      tag_21\n      jump\t// in\n    tag_18:\n      stop\n        /* \"contracts/LiquidityPool.sol\":271:390  function initializeTokens(IERC20 _token1, IERC20 _token2) public{... */\n    tag_10:\n        /* \"contracts/LiquidityPool.sol\":352:359  _token1 */\n      dup2\n        /* \"contracts/LiquidityPool.sol\":345:351  token1 */\n      0x00\n      dup1\n        /* \"contracts/LiquidityPool.sol\":345:359  token1=_token1 */\n      0x0100\n      exp\n      dup2\n      sload\n      dup2\n      0xffffffffffffffffffffffffffffffffffffffff\n      mul\n      not\n      and\n      swap1\n      dup4\n      0xffffffffffffffffffffffffffffffffffffffff\n      and\n      mul\n      or\n      swap1\n      sstore\n      pop\n        /* \"contracts/LiquidityPool.sol\":376:383  _token2 */\n      dup1\n        /* \"contracts/LiquidityPool.sol\":369:375  token2 */\n      0x01\n      0x00\n        /* \"contracts/LiquidityPool.sol\":369:383  token2=_token2 */\n      0x0100\n      exp\n      dup2\n      sload\n      dup2\n      0xffffffffffffffffffffffffffffffffffffffff\n      mul\n      not\n      and\n      swap1\n      dup4\n      0xffffffffffffffffffffffffffffffffffffffff\n      and\n      mul\n      or\n      swap1\n      sstore\n      pop\n        /* \"contracts/LiquidityPool.sol\":271:390  function initializeTokens(IERC20 _token1, IERC20 _token2) public{... */\n      pop\n      pop\n      jump\t// out\n        /* \"contracts/LiquidityPool.sol\":398:769  function addToPool(uint amountOfToken1,uint amountOfToken2)public{... */\n    tag_14:\n        /* \"contracts/LiquidityPool.sol\":497:498  0 */\n      0x00\n        /* \"contracts/LiquidityPool.sol\":482:496  amountOfToken1 */\n      dup3\n        /* \"contracts/LiquidityPool.sol\":482:498  amountOfToken1>0 */\n      gt\n        /* \"contracts/LiquidityPool.sol\":482:518  amountOfToken1>0 && amountOfToken2>0 */\n      dup1\n      iszero\n      tag_24\n      jumpi\n      pop\n        /* \"contracts/LiquidityPool.sol\":517:518  0 */\n      0x00\n        /* \"contracts/LiquidityPool.sol\":502:516  amountOfToken2 */\n      dup2\n        /* \"contracts/LiquidityPool.sol\":502:518  amountOfToken2>0 */\n      gt\n        /* \"contracts/LiquidityPool.sol\":482:518  amountOfToken1>0 && amountOfToken2>0 */\n    tag_24:\n        /* \"contracts/LiquidityPool.sol\":474:543  require(amountOfToken1>0 && amountOfToken2>0, \"Amount Should be > 0\") */\n      tag_25\n      jumpi\n      mload(0x40)\n      0x08c379a000000000000000000000000000000000000000000000000000000000\n      dup2\n      mstore\n      0x04\n      add\n      tag_26\n      swap1\n      tag_27\n      jump\t// in\n    tag_26:\n      mload(0x40)\n      dup1\n      swap2\n      sub\n      swap1\n      revert\n    tag_25:\n        /* \"contracts/LiquidityPool.sol\":567:581  amountOfToken1 */\n      dup2\n        /* \"contracts/LiquidityPool.sol\":554:565  token1Count */\n      0x02\n      0x00\n        /* \"contracts/LiquidityPool.sol\":554:581  token1Count+=amountOfToken1 */\n      dup3\n      dup3\n      sload\n      tag_28\n      swap2\n      swap1\n      tag_29\n      jump\t// in\n    tag_28:\n      swap3\n      pop\n      pop\n      dup2\n      swap1\n      sstore\n      pop\n        /* \"contracts/LiquidityPool.sol\":605:619  amountOfToken2 */\n      dup1\n        /* \"contracts/LiquidityPool.sol\":592:603  token2Count */\n      0x03\n      0x00\n        /* \"contracts/LiquidityPool.sol\":592:619  token2Count+=amountOfToken2 */\n      dup3\n      dup3\n      sload\n      tag_30\n      swap2\n      swap1\n      tag_29\n      jump\t// in\n    tag_30:\n      swap3\n      pop\n      pop\n      dup2\n      swap1\n      sstore\n      pop\n        /* \"contracts/LiquidityPool.sol\":630:636  token1 */\n      0x00\n      dup1\n      sload\n      swap1\n      0x0100\n      exp\n      swap1\n      div\n      0xffffffffffffffffffffffffffffffffffffffff\n      and\n        /* \"contracts/LiquidityPool.sol\":630:649  token1.transferFrom */\n      0xffffffffffffffffffffffffffffffffffffffff\n      and\n      0x23b872dd\n        /* \"contracts/LiquidityPool.sol\":650:660  msg.sender */\n      caller\n        /* \"contracts/LiquidityPool.sol\":669:673  this */\n      address\n        /* \"contracts/LiquidityPool.sol\":675:689  amountOfToken1 */\n      dup6\n        /* \"contracts/LiquidityPool.sol\":630:690  token1.transferFrom(msg.sender,address(this),amountOfToken1) */\n      mload(0x40)\n      dup5\n      0xffffffff\n      and\n      0xe0\n      shl\n      dup2\n      mstore\n      0x04\n      add\n      tag_31\n      swap4\n      swap3\n      swap2\n      swap1\n      tag_32\n      jump\t// in\n    tag_31:\n      0x20\n      mload(0x40)\n      dup1\n      dup4\n      sub\n      dup2\n      0x00\n      dup8\n      gas\n      call\n      iszero\n      dup1\n      iszero\n      tag_34\n      jumpi\n      returndatasize\n      0x00\n      dup1\n      returndatacopy\n      revert(0x00, returndatasize)\n    tag_34:\n      pop\n      pop\n      pop\n      pop\n      mload(0x40)\n      returndatasize\n      not(0x1f)\n      0x1f\n      dup3\n      add\n      and\n      dup3\n      add\n      dup1\n      0x40\n      mstore\n      pop\n      dup2\n      add\n      swap1\n      tag_35\n      swap2\n      swap1\n      tag_36\n      jump\t// in\n    tag_35:\n      pop\n        /* \"contracts/LiquidityPool.sol\":701:707  token2 */\n      0x01\n      0x00\n      swap1\n      sload\n      swap1\n      0x0100\n      exp\n      swap1\n      div\n      0xffffffffffffffffffffffffffffffffffffffff\n      and\n        /* \"contracts/LiquidityPool.sol\":701:720  token2.transferFrom */\n      0xffffffffffffffffffffffffffffffffffffffff\n      and\n      0x23b872dd\n        /* \"contracts/LiquidityPool.sol\":721:731  msg.sender */\n      caller\n        /* \"contracts/LiquidityPool.sol\":740:744  this */\n      address\n        /* \"contracts/LiquidityPool.sol\":746:760  amountOfToken2 */\n      dup5\n        /* \"contracts/LiquidityPool.sol\":701:761  token2.transferFrom(msg.sender,address(this),amountOfToken2) */\n      mload(0x40)\n      dup5\n      0xffffffff\n      and\n      0xe0\n      shl\n      dup2\n      mstore\n      0x04\n      add\n      tag_37\n      swap4\n      swap3\n      swap2\n      swap1\n      tag_32\n      jump\t// in\n    tag_37:\n      0x20\n      mload(0x40)\n      dup1\n      dup4\n      sub\n      dup2\n      0x00\n      dup8\n      gas\n      call\n      iszero\n      dup1\n      iszero\n      tag_39\n      jumpi\n      returndatasize\n      0x00\n      dup1\n      returndatacopy\n      revert(0x00, returndatasize)\n    tag_39:\n      pop\n      pop\n      pop\n      pop\n      mload(0x40)\n      returndatasize\n      not(0x1f)\n      0x1f\n      dup3\n      add\n      and\n      dup3\n      add\n      dup1\n      0x40\n      mstore\n      pop\n      dup2\n      add\n      swap1\n      tag_40\n      swap2\n      swap1\n      tag_36\n      jump\t// in\n    tag_40:\n      pop\n        /* \"contracts/LiquidityPool.sol\":398:769  function addToPool(uint amountOfToken1,uint amountOfToken2)public{... */\n      pop\n      pop\n      jump\t// out\n        /* \"contracts/LiquidityPool.sol\":777:1122  function withdrawFromPool(uint amountOfToken1,uint amountOfToken2) public {... */\n    tag_17:\n        /* \"contracts/LiquidityPool.sol\":886:887  0 */\n      0x00\n        /* \"contracts/LiquidityPool.sol\":871:885  amountOfToken1 */\n      dup3\n        /* \"contracts/LiquidityPool.sol\":871:887  amountOfToken1>0 */\n      gt\n        /* \"contracts/LiquidityPool.sol\":871:907  amountOfToken1>0 && amountOfToken2>0 */\n      dup1\n      iszero\n      tag_42\n      jumpi\n      pop\n        /* \"contracts/LiquidityPool.sol\":906:907  0 */\n      0x00\n        /* \"contracts/LiquidityPool.sol\":891:905  amountOfToken2 */\n      dup2\n        /* \"contracts/LiquidityPool.sol\":891:907  amountOfToken2>0 */\n      gt\n        /* \"contracts/LiquidityPool.sol\":871:907  amountOfToken1>0 && amountOfToken2>0 */\n    tag_42:\n        /* \"contracts/LiquidityPool.sol\":863:932  require(amountOfToken1>0 && amountOfToken2>0, \"Amount Should be > 0\") */\n      tag_43\n      jumpi\n      mload(0x40)\n      0x08c379a000000000000000000000000000000000000000000000000000000000\n      dup2\n      mstore\n      0x04\n      add\n      tag_44\n      swap1\n      tag_27\n      jump\t// in\n    tag_44:\n      mload(0x40)\n      dup1\n      swap2\n      sub\n      swap1\n      revert\n    tag_43:\n        /* \"contracts/LiquidityPool.sol\":956:970  amountOfToken1 */\n      dup2\n        /* \"contracts/LiquidityPool.sol\":943:954  token1Count */\n      0x02\n      0x00\n        /* \"contracts/LiquidityPool.sol\":943:970  token1Count-=amountOfToken1 */\n      dup3\n      dup3\n      sload\n      tag_45\n      swap2\n      swap1\n      tag_46\n      jump\t// in\n    tag_45:\n      swap3\n      pop\n      pop\n      dup2\n      swap1\n      sstore\n      pop\n        /* \"contracts/LiquidityPool.sol\":994:1008  amountOfToken2 */\n      dup1\n        /* \"contracts/LiquidityPool.sol\":981:992  token2Count */\n      0x03\n      0x00\n        /* \"contracts/LiquidityPool.sol\":981:1008  token2Count-=amountOfToken2 */\n      dup3\n      dup3\n      sload\n      tag_47\n      swap2\n      swap1\n      tag_46\n      jump\t// in\n    tag_47:\n      swap3\n      pop\n      pop\n      dup2\n      swap1\n      sstore\n      pop\n        /* \"contracts/LiquidityPool.sol\":1019:1025  token1 */\n      0x00\n      dup1\n      sload\n      swap1\n      0x0100\n      exp\n      swap1\n      div\n      0xffffffffffffffffffffffffffffffffffffffff\n      and\n        /* \"contracts/LiquidityPool.sol\":1019:1034  token1.transfer */\n      0xffffffffffffffffffffffffffffffffffffffff\n      and\n      0xa9059cbb\n        /* \"contracts/LiquidityPool.sol\":1035:1045  msg.sender */\n      caller\n        /* \"contracts/LiquidityPool.sol\":1046:1060  amountOfToken1 */\n      dup5\n        /* \"contracts/LiquidityPool.sol\":1019:1061  token1.transfer(msg.sender,amountOfToken1) */\n      mload(0x40)\n      dup4\n      0xffffffff\n      and\n      0xe0\n      shl\n      dup2\n      mstore\n      0x04\n      add\n      tag_48\n      swap3\n      swap2\n      swap1\n      tag_49\n      jump\t// in\n    tag_48:\n      0x20\n      mload(0x40)\n      dup1\n      dup4\n      sub\n      dup2\n      0x00\n      dup8\n      gas\n      call\n      iszero\n      dup1\n      iszero\n      tag_51\n      jumpi\n      returndatasize\n      0x00\n      dup1\n      returndatacopy\n      revert(0x00, returndatasize)\n    tag_51:\n      pop\n      pop\n      pop\n      pop\n      mload(0x40)\n      returndatasize\n      not(0x1f)\n      0x1f\n      dup3\n      add\n      and\n      dup3\n      add\n      dup1\n      0x40\n      mstore\n      pop\n      dup2\n      add\n      swap1\n      tag_52\n      swap2\n      swap1\n      tag_36\n      jump\t// in\n    tag_52:\n      pop\n        /* \"contracts/LiquidityPool.sol\":1072:1078  token2 */\n      0x01\n      0x00\n      swap1\n      sload\n      swap1\n      0x0100\n      exp\n      swap1\n      div\n      0xffffffffffffffffffffffffffffffffffffffff\n      and\n        /* \"contracts/LiquidityPool.sol\":1072:1087  token2.transfer */\n      0xffffffffffffffffffffffffffffffffffffffff\n      and\n      0xa9059cbb\n        /* \"contracts/LiquidityPool.sol\":1088:1098  msg.sender */\n      caller\n        /* \"contracts/LiquidityPool.sol\":1099:1113  amountOfToken2 */\n      dup4\n        /* \"contracts/LiquidityPool.sol\":1072:1114  token2.transfer(msg.sender,amountOfToken2) */\n      mload(0x40)\n      dup4\n      0xffffffff\n      and\n      0xe0\n      shl\n      dup2\n      mstore\n      0x04\n      add\n      tag_53\n      swap3\n      swap2\n      swap1\n      tag_49\n      jump\t// in\n    tag_53:\n      0x20\n      mload(0x40)\n      dup1\n      dup4\n      sub\n      dup2\n      0x00\n      dup8\n      gas\n      call\n      iszero\n      dup1\n      iszero\n      tag_55\n      jumpi\n      returndatasize\n      0x00\n      dup1\n      returndatacopy\n      revert(0x00, returndatasize)\n    tag_55:\n      pop\n      pop\n      pop\n      pop\n      mload(0x40)\n      returndatasize\n      not(0x1f)\n      0x1f\n      dup3\n      add\n      and\n      dup3\n      add\n      dup1\n      0x40\n      mstore\n      pop\n      dup2\n      add\n      swap1\n      tag_56\n      swap2\n      swap1\n      tag_36\n      jump\t// in\n    tag_56:\n      pop\n        /* \"contracts/LiquidityPool.sol\":777:1122  function withdrawFromPool(uint amountOfToken1,uint amountOfToken2) public {... */\n      pop\n      pop\n      jump\t// out\n        /* \"contracts/LiquidityPool.sol\":1130:1968  function swapTokens(uint amountIn, IERC20 fromToken, IERC20 toToken) external {... */\n    tag_21:\n        /* \"contracts/LiquidityPool.sol\":1244:1251  toToken */\n      dup1\n        /* \"contracts/LiquidityPool.sol\":1231:1251  fromToken != toToken */\n      0xffffffffffffffffffffffffffffffffffffffff\n      and\n        /* \"contracts/LiquidityPool.sol\":1231:1240  fromToken */\n      dup3\n        /* \"contracts/LiquidityPool.sol\":1231:1251  fromToken != toToken */\n      0xffffffffffffffffffffffffffffffffffffffff\n      and\n      sub\n        /* \"contracts/LiquidityPool.sol\":1223:1280  require(fromToken != toToken, \"Tokens must be different\") */\n      tag_58\n      jumpi\n      mload(0x40)\n      0x08c379a000000000000000000000000000000000000000000000000000000000\n      dup2\n      mstore\n      0x04\n      add\n      tag_59\n      swap1\n      tag_60\n      jump\t// in\n    tag_59:\n      mload(0x40)\n      dup1\n      swap2\n      sub\n      swap1\n      revert\n    tag_58:\n        /* \"contracts/LiquidityPool.sol\":1291:1312  uint fromTokenBalance */\n      0x00\n        /* \"contracts/LiquidityPool.sol\":1328:1334  token1 */\n      dup1\n      0x00\n      swap1\n      sload\n      swap1\n      0x0100\n      exp\n      swap1\n      div\n      0xffffffffffffffffffffffffffffffffffffffff\n      and\n        /* \"contracts/LiquidityPool.sol\":1315:1334  fromToken == token1 */\n      0xffffffffffffffffffffffffffffffffffffffff\n      and\n        /* \"contracts/LiquidityPool.sol\":1315:1324  fromToken */\n      dup4\n        /* \"contracts/LiquidityPool.sol\":1315:1334  fromToken == token1 */\n      0xffffffffffffffffffffffffffffffffffffffff\n      and\n      eq\n        /* \"contracts/LiquidityPool.sol\":1315:1362  fromToken == token1 ? token1Count : token2Count */\n      tag_61\n      jumpi\n        /* \"contracts/LiquidityPool.sol\":1351:1362  token2Count */\n      sload(0x03)\n        /* \"contracts/LiquidityPool.sol\":1315:1362  fromToken == token1 ? token1Count : token2Count */\n      jump(tag_62)\n    tag_61:\n        /* \"contracts/LiquidityPool.sol\":1337:1348  token1Count */\n      sload(0x02)\n        /* \"contracts/LiquidityPool.sol\":1315:1362  fromToken == token1 ? token1Count : token2Count */\n    tag_62:\n        /* \"contracts/LiquidityPool.sol\":1291:1362  uint fromTokenBalance = fromToken == token1 ? token1Count : token2Count */\n      swap1\n      pop\n        /* \"contracts/LiquidityPool.sol\":1373:1392  uint toTokenBalance */\n      0x00\n        /* \"contracts/LiquidityPool.sol\":1406:1412  token1 */\n      dup1\n      0x00\n      swap1\n      sload\n      swap1\n      0x0100\n      exp\n      swap1\n      div\n      0xffffffffffffffffffffffffffffffffffffffff\n      and\n        /* \"contracts/LiquidityPool.sol\":1395:1412  toToken == token1 */\n      0xffffffffffffffffffffffffffffffffffffffff\n      and\n        /* \"contracts/LiquidityPool.sol\":1395:1402  toToken */\n      dup4\n        /* \"contracts/LiquidityPool.sol\":1395:1412  toToken == token1 */\n      0xffffffffffffffffffffffffffffffffffffffff\n      and\n      eq\n        /* \"contracts/LiquidityPool.sol\":1395:1440  toToken == token1 ? token1Count : token2Count */\n      tag_63\n      jumpi\n        /* \"contracts/LiquidityPool.sol\":1429:1440  token2Count */\n      sload(0x03)\n        /* \"contracts/LiquidityPool.sol\":1395:1440  toToken == token1 ? token1Count : token2Count */\n      jump(tag_64)\n    tag_63:\n        /* \"contracts/LiquidityPool.sol\":1415:1426  token1Count */\n      sload(0x02)\n        /* \"contracts/LiquidityPool.sol\":1395:1440  toToken == token1 ? token1Count : token2Count */\n    tag_64:\n        /* \"contracts/LiquidityPool.sol\":1373:1440  uint toTokenBalance = toToken == token1 ? token1Count : token2Count */\n      swap1\n      pop\n        /* \"contracts/LiquidityPool.sol\":1489:1497  amountIn */\n      dup5\n        /* \"contracts/LiquidityPool.sol\":1469:1485  fromTokenBalance */\n      dup3\n        /* \"contracts/LiquidityPool.sol\":1469:1497  fromTokenBalance >= amountIn */\n      lt\n      iszero\n        /* \"contracts/LiquidityPool.sol\":1461:1522  require(fromTokenBalance >= amountIn, \"Insufficient balance\") */\n      tag_65\n      jumpi\n      mload(0x40)\n      0x08c379a000000000000000000000000000000000000000000000000000000000\n      dup2\n      mstore\n      0x04\n      add\n      tag_66\n      swap1\n      tag_67\n      jump\t// in\n    tag_66:\n      mload(0x40)\n      dup1\n      swap2\n      sub\n      swap1\n      revert\n    tag_65:\n        /* \"contracts/LiquidityPool.sol\":1535:1552  uint256 amountOut */\n      0x00\n        /* \"contracts/LiquidityPool.sol\":1585:1601  fromTokenBalance */\n      dup3\n        /* \"contracts/LiquidityPool.sol\":1567:1581  toTokenBalance */\n      dup3\n        /* \"contracts/LiquidityPool.sol\":1556:1564  amountIn */\n      dup8\n        /* \"contracts/LiquidityPool.sol\":1556:1581  amountIn * toTokenBalance */\n      tag_68\n      swap2\n      swap1\n      tag_69\n      jump\t// in\n    tag_68:\n        /* \"contracts/LiquidityPool.sol\":1555:1601  (amountIn * toTokenBalance) / fromTokenBalance */\n      tag_70\n      swap2\n      swap1\n      tag_71\n      jump\t// in\n    tag_70:\n        /* \"contracts/LiquidityPool.sol\":1535:1601  uint256 amountOut = (amountIn * toTokenBalance) / fromTokenBalance */\n      swap1\n      pop\n        /* \"contracts/LiquidityPool.sol\":1639:1645  token1 */\n      0x00\n      dup1\n      sload\n      swap1\n      0x0100\n      exp\n      swap1\n      div\n      0xffffffffffffffffffffffffffffffffffffffff\n      and\n        /* \"contracts/LiquidityPool.sol\":1626:1645  fromToken == token1 */\n      0xffffffffffffffffffffffffffffffffffffffff\n      and\n        /* \"contracts/LiquidityPool.sol\":1626:1635  fromToken */\n      dup6\n        /* \"contracts/LiquidityPool.sol\":1626:1645  fromToken == token1 */\n      0xffffffffffffffffffffffffffffffffffffffff\n      and\n      sub\n        /* \"contracts/LiquidityPool.sol\":1622:1831  if (fromToken == token1) {... */\n      tag_72\n      jumpi\n        /* \"contracts/LiquidityPool.sol\":1677:1685  amountIn */\n      dup6\n        /* \"contracts/LiquidityPool.sol\":1662:1673  token1Count */\n      0x02\n      0x00\n        /* \"contracts/LiquidityPool.sol\":1662:1685  token1Count -= amountIn */\n      dup3\n      dup3\n      sload\n      tag_73\n      swap2\n      swap1\n      tag_46\n      jump\t// in\n    tag_73:\n      swap3\n      pop\n      pop\n      dup2\n      swap1\n      sstore\n      pop\n        /* \"contracts/LiquidityPool.sol\":1715:1724  amountOut */\n      dup1\n        /* \"contracts/LiquidityPool.sol\":1700:1711  token2Count */\n      0x03\n      0x00\n        /* \"contracts/LiquidityPool.sol\":1700:1724  token2Count += amountOut */\n      dup3\n      dup3\n      sload\n      tag_74\n      swap2\n      swap1\n      tag_29\n      jump\t// in\n    tag_74:\n      swap3\n      pop\n      pop\n      dup2\n      swap1\n      sstore\n      pop\n        /* \"contracts/LiquidityPool.sol\":1622:1831  if (fromToken == token1) {... */\n      jump(tag_75)\n    tag_72:\n        /* \"contracts/LiquidityPool.sol\":1772:1780  amountIn */\n      dup6\n        /* \"contracts/LiquidityPool.sol\":1757:1768  token2Count */\n      0x03\n      0x00\n        /* \"contracts/LiquidityPool.sol\":1757:1780  token2Count -= amountIn */\n      dup3\n      dup3\n      sload\n      tag_76\n      swap2\n      swap1\n      tag_46\n      jump\t// in\n    tag_76:\n      swap3\n      pop\n      pop\n      dup2\n      swap1\n      sstore\n      pop\n        /* \"contracts/LiquidityPool.sol\":1810:1819  amountOut */\n      dup1\n        /* \"contracts/LiquidityPool.sol\":1795:1806  token1Count */\n      0x02\n      0x00\n        /* \"contracts/LiquidityPool.sol\":1795:1819  token1Count += amountOut */\n      dup3\n      dup3\n      sload\n      tag_77\n      swap2\n      swap1\n      tag_29\n      jump\t// in\n    tag_77:\n      swap3\n      pop\n      pop\n      dup2\n      swap1\n      sstore\n      pop\n        /* \"contracts/LiquidityPool.sol\":1622:1831  if (fromToken == token1) {... */\n    tag_75:\n        /* \"contracts/LiquidityPool.sol\":1842:1851  fromToken */\n      dup5\n        /* \"contracts/LiquidityPool.sol\":1842:1864  fromToken.transferFrom */\n      0xffffffffffffffffffffffffffffffffffffffff\n      and\n      0x23b872dd\n        /* \"contracts/LiquidityPool.sol\":1865:1875  msg.sender */\n      caller\n        /* \"contracts/LiquidityPool.sol\":1885:1889  this */\n      address\n        /* \"contracts/LiquidityPool.sol\":1892:1900  amountIn */\n      dup10\n        /* \"contracts/LiquidityPool.sol\":1842:1901  fromToken.transferFrom(msg.sender, address(this), amountIn) */\n      mload(0x40)\n      dup5\n      0xffffffff\n      and\n      0xe0\n      shl\n      dup2\n      mstore\n      0x04\n      add\n      tag_78\n      swap4\n      swap3\n      swap2\n      swap1\n      tag_32\n      jump\t// in\n    tag_78:\n      0x20\n      mload(0x40)\n      dup1\n      dup4\n      sub\n      dup2\n      0x00\n      dup8\n      gas\n      call\n      iszero\n      dup1\n      iszero\n      tag_80\n      jumpi\n      returndatasize\n      0x00\n      dup1\n      returndatacopy\n      revert(0x00, returndatasize)\n    tag_80:\n      pop\n      pop\n      pop\n      pop\n      mload(0x40)\n      returndatasize\n      not(0x1f)\n      0x1f\n      dup3\n      add\n      and\n      dup3\n      add\n      dup1\n      0x40\n      mstore\n      pop\n      dup2\n      add\n      swap1\n      tag_81\n      swap2\n      swap1\n      tag_36\n      jump\t// in\n    tag_81:\n      pop\n        /* \"contracts/LiquidityPool.sol\":1911:1918  toToken */\n      dup4\n        /* \"contracts/LiquidityPool.sol\":1911:1927  toToken.transfer */\n      0xffffffffffffffffffffffffffffffffffffffff\n      and\n      0xa9059cbb\n        /* \"contracts/LiquidityPool.sol\":1928:1938  msg.sender */\n      caller\n        /* \"contracts/LiquidityPool.sol\":1940:1949  amountOut */\n      dup4\n        /* \"contracts/LiquidityPool.sol\":1911:1950  toToken.transfer(msg.sender, amountOut) */\n      mload(0x40)\n      dup4\n      0xffffffff\n      and\n      0xe0\n      shl\n      dup2\n      mstore\n      0x04\n      add\n      tag_82\n      swap3\n      swap2\n      swap1\n      tag_49\n      jump\t// in\n    tag_82:\n      0x20\n      mload(0x40)\n      dup1\n      dup4\n      sub\n      dup2\n      0x00\n      dup8\n      gas\n      call\n      iszero\n      dup1\n      iszero\n      tag_84\n      jumpi\n      returndatasize\n      0x00\n      dup1\n      returndatacopy\n      revert(0x00, returndatasize)\n    tag_84:\n      pop\n      pop\n      pop\n      pop\n      mload(0x40)\n      returndatasize\n      not(0x1f)\n      0x1f\n      dup3\n      add\n      and\n      dup3\n      add\n      dup1\n      0x40\n      mstore\n      pop\n      dup2\n      add\n      swap1\n      tag_85\n      swap2\n      swap1\n      tag_36\n      jump\t// in\n    tag_85:\n      pop\n        /* \"contracts/LiquidityPool.sol\":1208:1968  {... */\n      pop\n      pop\n      pop\n        /* \"contracts/LiquidityPool.sol\":1130:1968  function swapTokens(uint amountIn, IERC20 fromToken, IERC20 toToken) external {... */\n      pop\n      pop\n      pop\n      jump\t// out\n        /* \"#utility.yul\":88:205   */\n    tag_87:\n        /* \"#utility.yul\":197:198   */\n      0x00\n        /* \"#utility.yul\":194:195   */\n      dup1\n        /* \"#utility.yul\":187:199   */\n      revert\n        /* \"#utility.yul\":334:460   */\n    tag_89:\n        /* \"#utility.yul\":371:378   */\n      0x00\n        /* \"#utility.yul\":411:453   */\n      0xffffffffffffffffffffffffffffffffffffffff\n        /* \"#utility.yul\":404:409   */\n      dup3\n        /* \"#utility.yul\":400:454   */\n      and\n        /* \"#utility.yul\":389:454   */\n      swap1\n      pop\n        /* \"#utility.yul\":334:460   */\n      swap2\n      swap1\n      pop\n      jump\t// out\n        /* \"#utility.yul\":466:562   */\n    tag_90:\n        /* \"#utility.yul\":503:510   */\n      0x00\n        /* \"#utility.yul\":532:556   */\n      tag_117\n        /* \"#utility.yul\":550:555   */\n      dup3\n        /* \"#utility.yul\":532:556   */\n      tag_89\n      jump\t// in\n    tag_117:\n        /* \"#utility.yul\":521:556   */\n      swap1\n      pop\n        /* \"#utility.yul\":466:562   */\n      swap2\n      swap1\n      pop\n      jump\t// out\n        /* \"#utility.yul\":568:677   */\n    tag_91:\n        /* \"#utility.yul\":618:625   */\n      0x00\n        /* \"#utility.yul\":647:671   */\n      tag_119\n        /* \"#utility.yul\":665:670   */\n      dup3\n        /* \"#utility.yul\":647:671   */\n      tag_90\n      jump\t// in\n    tag_119:\n        /* \"#utility.yul\":636:671   */\n      swap1\n      pop\n        /* \"#utility.yul\":568:677   */\n      swap2\n      swap1\n      pop\n      jump\t// out\n        /* \"#utility.yul\":683:831   */\n    tag_92:\n        /* \"#utility.yul\":769:806   */\n      tag_121\n        /* \"#utility.yul\":800:805   */\n      dup2\n        /* \"#utility.yul\":769:806   */\n      tag_91\n      jump\t// in\n    tag_121:\n        /* \"#utility.yul\":762:767   */\n      dup2\n        /* \"#utility.yul\":759:807   */\n      eq\n        /* \"#utility.yul\":749:825   */\n      tag_122\n      jumpi\n        /* \"#utility.yul\":821:822   */\n      0x00\n        /* \"#utility.yul\":818:819   */\n      dup1\n        /* \"#utility.yul\":811:823   */\n      revert\n        /* \"#utility.yul\":749:825   */\n    tag_122:\n        /* \"#utility.yul\":683:831   */\n      pop\n      jump\t// out\n        /* \"#utility.yul\":837:1002   */\n    tag_93:\n        /* \"#utility.yul\":896:901   */\n      0x00\n        /* \"#utility.yul\":934:940   */\n      dup2\n        /* \"#utility.yul\":921:941   */\n      calldataload\n        /* \"#utility.yul\":912:941   */\n      swap1\n      pop\n        /* \"#utility.yul\":950:996   */\n      tag_124\n        /* \"#utility.yul\":990:995   */\n      dup2\n        /* \"#utility.yul\":950:996   */\n      tag_92\n      jump\t// in\n    tag_124:\n        /* \"#utility.yul\":837:1002   */\n      swap3\n      swap2\n      pop\n      pop\n      jump\t// out\n        /* \"#utility.yul\":1008:1534   */\n    tag_9:\n        /* \"#utility.yul\":1102:1108   */\n      0x00\n        /* \"#utility.yul\":1110:1116   */\n      dup1\n        /* \"#utility.yul\":1159:1161   */\n      0x40\n        /* \"#utility.yul\":1147:1156   */\n      dup4\n        /* \"#utility.yul\":1138:1145   */\n      dup6\n        /* \"#utility.yul\":1134:1157   */\n      sub\n        /* \"#utility.yul\":1130:1162   */\n      slt\n        /* \"#utility.yul\":1127:1246   */\n      iszero\n      tag_126\n      jumpi\n        /* \"#utility.yul\":1165:1244   */\n      tag_127\n      tag_87\n      jump\t// in\n    tag_127:\n        /* \"#utility.yul\":1127:1246   */\n    tag_126:\n        /* \"#utility.yul\":1285:1286   */\n      0x00\n        /* \"#utility.yul\":1310:1376   */\n      tag_128\n        /* \"#utility.yul\":1368:1375   */\n      dup6\n        /* \"#utility.yul\":1359:1365   */\n      dup3\n        /* \"#utility.yul\":1348:1357   */\n      dup7\n        /* \"#utility.yul\":1344:1366   */\n      add\n        /* \"#utility.yul\":1310:1376   */\n      tag_93\n      jump\t// in\n    tag_128:\n        /* \"#utility.yul\":1300:1376   */\n      swap3\n      pop\n        /* \"#utility.yul\":1256:1386   */\n      pop\n        /* \"#utility.yul\":1425:1427   */\n      0x20\n        /* \"#utility.yul\":1451:1517   */\n      tag_129\n        /* \"#utility.yul\":1509:1516   */\n      dup6\n        /* \"#utility.yul\":1500:1506   */\n      dup3\n        /* \"#utility.yul\":1489:1498   */\n      dup7\n        /* \"#utility.yul\":1485:1507   */\n      add\n        /* \"#utility.yul\":1451:1517   */\n      tag_93\n      jump\t// in\n    tag_129:\n        /* \"#utility.yul\":1441:1517   */\n      swap2\n      pop\n        /* \"#utility.yul\":1396:1527   */\n      pop\n        /* \"#utility.yul\":1008:1534   */\n      swap3\n      pop\n      swap3\n      swap1\n      pop\n      jump\t// out\n        /* \"#utility.yul\":1540:1617   */\n    tag_94:\n        /* \"#utility.yul\":1577:1584   */\n      0x00\n        /* \"#utility.yul\":1606:1611   */\n      dup2\n        /* \"#utility.yul\":1595:1611   */\n      swap1\n      pop\n        /* \"#utility.yul\":1540:1617   */\n      swap2\n      swap1\n      pop\n      jump\t// out\n        /* \"#utility.yul\":1623:1745   */\n    tag_95:\n        /* \"#utility.yul\":1696:1720   */\n      tag_132\n        /* \"#utility.yul\":1714:1719   */\n      dup2\n        /* \"#utility.yul\":1696:1720   */\n      tag_94\n      jump\t// in\n    tag_132:\n        /* \"#utility.yul\":1689:1694   */\n      dup2\n        /* \"#utility.yul\":1686:1721   */\n      eq\n        /* \"#utility.yul\":1676:1739   */\n      tag_133\n      jumpi\n        /* \"#utility.yul\":1735:1736   */\n      0x00\n        /* \"#utility.yul\":1732:1733   */\n      dup1\n        /* \"#utility.yul\":1725:1737   */\n      revert\n        /* \"#utility.yul\":1676:1739   */\n    tag_133:\n        /* \"#utility.yul\":1623:1745   */\n      pop\n      jump\t// out\n        /* \"#utility.yul\":1751:1890   */\n    tag_96:\n        /* \"#utility.yul\":1797:1802   */\n      0x00\n        /* \"#utility.yul\":1835:1841   */\n      dup2\n        /* \"#utility.yul\":1822:1842   */\n      calldataload\n        /* \"#utility.yul\":1813:1842   */\n      swap1\n      pop\n        /* \"#utility.yul\":1851:1884   */\n      tag_135\n        /* \"#utility.yul\":1878:1883   */\n      dup2\n        /* \"#utility.yul\":1851:1884   */\n      tag_95\n      jump\t// in\n    tag_135:\n        /* \"#utility.yul\":1751:1890   */\n      swap3\n      swap2\n      pop\n      pop\n      jump\t// out\n        /* \"#utility.yul\":1896:2370   */\n    tag_13:\n        /* \"#utility.yul\":1964:1970   */\n      0x00\n        /* \"#utility.yul\":1972:1978   */\n      dup1\n        /* \"#utility.yul\":2021:2023   */\n      0x40\n        /* \"#utility.yul\":2009:2018   */\n      dup4\n        /* \"#utility.yul\":2000:2007   */\n      dup6\n        /* \"#utility.yul\":1996:2019   */\n      sub\n        /* \"#utility.yul\":1992:2024   */\n      slt\n        /* \"#utility.yul\":1989:2108   */\n      iszero\n      tag_137\n      jumpi\n        /* \"#utility.yul\":2027:2106   */\n      tag_138\n      tag_87\n      jump\t// in\n    tag_138:\n        /* \"#utility.yul\":1989:2108   */\n    tag_137:\n        /* \"#utility.yul\":2147:2148   */\n      0x00\n        /* \"#utility.yul\":2172:2225   */\n      tag_139\n        /* \"#utility.yul\":2217:2224   */\n      dup6\n        /* \"#utility.yul\":2208:2214   */\n      dup3\n        /* \"#utility.yul\":2197:2206   */\n      dup7\n        /* \"#utility.yul\":2193:2215   */\n      add\n        /* \"#utility.yul\":2172:2225   */\n      tag_96\n      jump\t// in\n    tag_139:\n        /* \"#utility.yul\":2162:2225   */\n      swap3\n      pop\n        /* \"#utility.yul\":2118:2235   */\n      pop\n        /* \"#utility.yul\":2274:2276   */\n      0x20\n        /* \"#utility.yul\":2300:2353   */\n      tag_140\n        /* \"#utility.yul\":2345:2352   */\n      dup6\n        /* \"#utility.yul\":2336:2342   */\n      dup3\n        /* \"#utility.yul\":2325:2334   */\n      dup7\n        /* \"#utility.yul\":2321:2343   */\n      add\n        /* \"#utility.yul\":2300:2353   */\n      tag_96\n      jump\t// in\n    tag_140:\n        /* \"#utility.yul\":2290:2353   */\n      swap2\n      pop\n        /* \"#utility.yul\":2245:2363   */\n      pop\n        /* \"#utility.yul\":1896:2370   */\n      swap3\n      pop\n      swap3\n      swap1\n      pop\n      jump\t// out\n        /* \"#utility.yul\":2376:3047   */\n    tag_20:\n        /* \"#utility.yul\":2479:2485   */\n      0x00\n        /* \"#utility.yul\":2487:2493   */\n      dup1\n        /* \"#utility.yul\":2495:2501   */\n      0x00\n        /* \"#utility.yul\":2544:2546   */\n      0x60\n        /* \"#utility.yul\":2532:2541   */\n      dup5\n        /* \"#utility.yul\":2523:2530   */\n      dup7\n        /* \"#utility.yul\":2519:2542   */\n      sub\n        /* \"#utility.yul\":2515:2547   */\n      slt\n        /* \"#utility.yul\":2512:2631   */\n      iszero\n      tag_142\n      jumpi\n        /* \"#utility.yul\":2550:2629   */\n      tag_143\n      tag_87\n      jump\t// in\n    tag_143:\n        /* \"#utility.yul\":2512:2631   */\n    tag_142:\n        /* \"#utility.yul\":2670:2671   */\n      0x00\n        /* \"#utility.yul\":2695:2748   */\n      tag_144\n        /* \"#utility.yul\":2740:2747   */\n      dup7\n        /* \"#utility.yul\":2731:2737   */\n      dup3\n        /* \"#utility.yul\":2720:2729   */\n      dup8\n        /* \"#utility.yul\":2716:2738   */\n      add\n        /* \"#utility.yul\":2695:2748   */\n      tag_96\n      jump\t// in\n    tag_144:\n        /* \"#utility.yul\":2685:2748   */\n      swap4\n      pop\n        /* \"#utility.yul\":2641:2758   */\n      pop\n        /* \"#utility.yul\":2797:2799   */\n      0x20\n        /* \"#utility.yul\":2823:2889   */\n      tag_145\n        /* \"#utility.yul\":2881:2888   */\n      dup7\n        /* \"#utility.yul\":2872:2878   */\n      dup3\n        /* \"#utility.yul\":2861:2870   */\n      dup8\n        /* \"#utility.yul\":2857:2879   */\n      add\n        /* \"#utility.yul\":2823:2889   */\n      tag_93\n      jump\t// in\n    tag_145:\n        /* \"#utility.yul\":2813:2889   */\n      swap3\n      pop\n        /* \"#utility.yul\":2768:2899   */\n      pop\n        /* \"#utility.yul\":2938:2940   */\n      0x40\n        /* \"#utility.yul\":2964:3030   */\n      tag_146\n        /* \"#utility.yul\":3022:3029   */\n      dup7\n        /* \"#utility.yul\":3013:3019   */\n      dup3\n        /* \"#utility.yul\":3002:3011   */\n      dup8\n        /* \"#utility.yul\":2998:3020   */\n      add\n        /* \"#utility.yul\":2964:3030   */\n      tag_93\n      jump\t// in\n    tag_146:\n        /* \"#utility.yul\":2954:3030   */\n      swap2\n      pop\n        /* \"#utility.yul\":2909:3040   */\n      pop\n        /* \"#utility.yul\":2376:3047   */\n      swap3\n      pop\n      swap3\n      pop\n      swap3\n      jump\t// out\n        /* \"#utility.yul\":3053:3222   */\n    tag_97:\n        /* \"#utility.yul\":3137:3148   */\n      0x00\n        /* \"#utility.yul\":3171:3177   */\n      dup3\n        /* \"#utility.yul\":3166:3169   */\n      dup3\n        /* \"#utility.yul\":3159:3178   */\n      mstore\n        /* \"#utility.yul\":3211:3215   */\n      0x20\n        /* \"#utility.yul\":3206:3209   */\n      dup3\n        /* \"#utility.yul\":3202:3216   */\n      add\n        /* \"#utility.yul\":3187:3216   */\n      swap1\n      pop\n        /* \"#utility.yul\":3053:3222   */\n      swap3\n      swap2\n      pop\n      pop\n      jump\t// out\n        /* \"#utility.yul\":3228:3398   */\n    tag_98:\n        /* \"#utility.yul\":3368:3390   */\n      0x416d6f756e742053686f756c64206265203e2030000000000000000000000000\n        /* \"#utility.yul\":3364:3365   */\n      0x00\n        /* \"#utility.yul\":3356:3362   */\n      dup3\n        /* \"#utility.yul\":3352:3366   */\n      add\n        /* \"#utility.yul\":3345:3391   */\n      mstore\n        /* \"#utility.yul\":3228:3398   */\n      pop\n      jump\t// out\n        /* \"#utility.yul\":3404:3770   */\n    tag_99:\n        /* \"#utility.yul\":3546:3549   */\n      0x00\n        /* \"#utility.yul\":3567:3634   */\n      tag_150\n        /* \"#utility.yul\":3631:3633   */\n      0x14\n        /* \"#utility.yul\":3626:3629   */\n      dup4\n        /* \"#utility.yul\":3567:3634   */\n      tag_97\n      jump\t// in\n    tag_150:\n        /* \"#utility.yul\":3560:3634   */\n      swap2\n      pop\n        /* \"#utility.yul\":3643:3736   */\n      tag_151\n        /* \"#utility.yul\":3732:3735   */\n      dup3\n        /* \"#utility.yul\":3643:3736   */\n      tag_98\n      jump\t// in\n    tag_151:\n        /* \"#utility.yul\":3761:3763   */\n      0x20\n        /* \"#utility.yul\":3756:3759   */\n      dup3\n        /* \"#utility.yul\":3752:3764   */\n      add\n        /* \"#utility.yul\":3745:3764   */\n      swap1\n      pop\n        /* \"#utility.yul\":3404:3770   */\n      swap2\n      swap1\n      pop\n      jump\t// out\n        /* \"#utility.yul\":3776:4195   */\n    tag_27:\n        /* \"#utility.yul\":3942:3946   */\n      0x00\n        /* \"#utility.yul\":3980:3982   */\n      0x20\n        /* \"#utility.yul\":3969:3978   */\n      dup3\n        /* \"#utility.yul\":3965:3983   */\n      add\n        /* \"#utility.yul\":3957:3983   */\n      swap1\n      pop\n        /* \"#utility.yul\":4029:4038   */\n      dup2\n        /* \"#utility.yul\":4023:4027   */\n      dup2\n        /* \"#utility.yul\":4019:4039   */\n      sub\n        /* \"#utility.yul\":4015:4016   */\n      0x00\n        /* \"#utility.yul\":4004:4013   */\n      dup4\n        /* \"#utility.yul\":4000:4017   */\n      add\n        /* \"#utility.yul\":3993:4040   */\n      mstore\n        /* \"#utility.yul\":4057:4188   */\n      tag_153\n        /* \"#utility.yul\":4183:4187   */\n      dup2\n        /* \"#utility.yul\":4057:4188   */\n      tag_99\n      jump\t// in\n    tag_153:\n        /* \"#utility.yul\":4049:4188   */\n      swap1\n      pop\n        /* \"#utility.yul\":3776:4195   */\n      swap2\n      swap1\n      pop\n      jump\t// out\n        /* \"#utility.yul\":4201:4381   */\n    tag_100:\n        /* \"#utility.yul\":4249:4326   */\n      0x4e487b7100000000000000000000000000000000000000000000000000000000\n        /* \"#utility.yul\":4246:4247   */\n      0x00\n        /* \"#utility.yul\":4239:4327   */\n      mstore\n        /* \"#utility.yul\":4346:4350   */\n      0x11\n        /* \"#utility.yul\":4343:4344   */\n      0x04\n        /* \"#utility.yul\":4336:4351   */\n      mstore\n        /* \"#utility.yul\":4370:4374   */\n      0x24\n        /* \"#utility.yul\":4367:4368   */\n      0x00\n        /* \"#utility.yul\":4360:4375   */\n      revert\n        /* \"#utility.yul\":4387:4578   */\n    tag_29:\n        /* \"#utility.yul\":4427:4430   */\n      0x00\n        /* \"#utility.yul\":4446:4466   */\n      tag_156\n        /* \"#utility.yul\":4464:4465   */\n      dup3\n        /* \"#utility.yul\":4446:4466   */\n      tag_94\n      jump\t// in\n    tag_156:\n        /* \"#utility.yul\":4441:4466   */\n      swap2\n      pop\n        /* \"#utility.yul\":4480:4500   */\n      tag_157\n        /* \"#utility.yul\":4498:4499   */\n      dup4\n        /* \"#utility.yul\":4480:4500   */\n      tag_94\n      jump\t// in\n    tag_157:\n        /* \"#utility.yul\":4475:4500   */\n      swap3\n      pop\n        /* \"#utility.yul\":4523:4524   */\n      dup3\n        /* \"#utility.yul\":4520:4521   */\n      dup3\n        /* \"#utility.yul\":4516:4525   */\n      add\n        /* \"#utility.yul\":4509:4525   */\n      swap1\n      pop\n        /* \"#utility.yul\":4544:4547   */\n      dup1\n        /* \"#utility.yul\":4541:4542   */\n      dup3\n        /* \"#utility.yul\":4538:4548   */\n      gt\n        /* \"#utility.yul\":4535:4571   */\n      iszero\n      tag_158\n      jumpi\n        /* \"#utility.yul\":4551:4569   */\n      tag_159\n      tag_100\n      jump\t// in\n    tag_159:\n        /* \"#utility.yul\":4535:4571   */\n    tag_158:\n        /* \"#utility.yul\":4387:4578   */\n      swap3\n      swap2\n      pop\n      pop\n      jump\t// out\n        /* \"#utility.yul\":4584:4702   */\n    tag_101:\n        /* \"#utility.yul\":4671:4695   */\n      tag_161\n        /* \"#utility.yul\":4689:4694   */\n      dup2\n        /* \"#utility.yul\":4671:4695   */\n      tag_90\n      jump\t// in\n    tag_161:\n        /* \"#utility.yul\":4666:4669   */\n      dup3\n        /* \"#utility.yul\":4659:4696   */\n      mstore\n        /* \"#utility.yul\":4584:4702   */\n      pop\n      pop\n      jump\t// out\n        /* \"#utility.yul\":4708:4826   */\n    tag_102:\n        /* \"#utility.yul\":4795:4819   */\n      tag_163\n        /* \"#utility.yul\":4813:4818   */\n      dup2\n        /* \"#utility.yul\":4795:4819   */\n      tag_94\n      jump\t// in\n    tag_163:\n        /* \"#utility.yul\":4790:4793   */\n      dup3\n        /* \"#utility.yul\":4783:4820   */\n      mstore\n        /* \"#utility.yul\":4708:4826   */\n      pop\n      pop\n      jump\t// out\n        /* \"#utility.yul\":4832:5274   */\n    tag_32:\n        /* \"#utility.yul\":4981:4985   */\n      0x00\n        /* \"#utility.yul\":5019:5021   */\n      0x60\n        /* \"#utility.yul\":5008:5017   */\n      dup3\n        /* \"#utility.yul\":5004:5022   */\n      add\n        /* \"#utility.yul\":4996:5022   */\n      swap1\n      pop\n        /* \"#utility.yul\":5032:5103   */\n      tag_165\n        /* \"#utility.yul\":5100:5101   */\n      0x00\n        /* \"#utility.yul\":5089:5098   */\n      dup4\n        /* \"#utility.yul\":5085:5102   */\n      add\n        /* \"#utility.yul\":5076:5082   */\n      dup7\n        /* \"#utility.yul\":5032:5103   */\n      tag_101\n      jump\t// in\n    tag_165:\n        /* \"#utility.yul\":5113:5185   */\n      tag_166\n        /* \"#utility.yul\":5181:5183   */\n      0x20\n        /* \"#utility.yul\":5170:5179   */\n      dup4\n        /* \"#utility.yul\":5166:5184   */\n      add\n        /* \"#utility.yul\":5157:5163   */\n      dup6\n        /* \"#utility.yul\":5113:5185   */\n      tag_101\n      jump\t// in\n    tag_166:\n        /* \"#utility.yul\":5195:5267   */\n      tag_167\n        /* \"#utility.yul\":5263:5265   */\n      0x40\n        /* \"#utility.yul\":5252:5261   */\n      dup4\n        /* \"#utility.yul\":5248:5266   */\n      add\n        /* \"#utility.yul\":5239:5245   */\n      dup5\n        /* \"#utility.yul\":5195:5267   */\n      tag_102\n      jump\t// in\n    tag_167:\n        /* \"#utility.yul\":4832:5274   */\n      swap5\n      swap4\n      pop\n      pop\n      pop\n      pop\n      jump\t// out\n        /* \"#utility.yul\":5280:5370   */\n    tag_103:\n        /* \"#utility.yul\":5314:5321   */\n      0x00\n        /* \"#utility.yul\":5357:5362   */\n      dup2\n        /* \"#utility.yul\":5350:5363   */\n      iszero\n        /* \"#utility.yul\":5343:5364   */\n      iszero\n        /* \"#utility.yul\":5332:5364   */\n      swap1\n      pop\n        /* \"#utility.yul\":5280:5370   */\n      swap2\n      swap1\n      pop\n      jump\t// out\n        /* \"#utility.yul\":5376:5492   */\n    tag_104:\n        /* \"#utility.yul\":5446:5467   */\n      tag_170\n        /* \"#utility.yul\":5461:5466   */\n      dup2\n        /* \"#utility.yul\":5446:5467   */\n      tag_103\n      jump\t// in\n    tag_170:\n        /* \"#utility.yul\":5439:5444   */\n      dup2\n        /* \"#utility.yul\":5436:5468   */\n      eq\n        /* \"#utility.yul\":5426:5486   */\n      tag_171\n      jumpi\n        /* \"#utility.yul\":5482:5483   */\n      0x00\n        /* \"#utility.yul\":5479:5480   */\n      dup1\n        /* \"#utility.yul\":5472:5484   */\n      revert\n        /* \"#utility.yul\":5426:5486   */\n    tag_171:\n        /* \"#utility.yul\":5376:5492   */\n      pop\n      jump\t// out\n        /* \"#utility.yul\":5498:5635   */\n    tag_105:\n        /* \"#utility.yul\":5552:5557   */\n      0x00\n        /* \"#utility.yul\":5583:5589   */\n      dup2\n        /* \"#utility.yul\":5577:5590   */\n      mload\n        /* \"#utility.yul\":5568:5590   */\n      swap1\n      pop\n        /* \"#utility.yul\":5599:5629   */\n      tag_173\n        /* \"#utility.yul\":5623:5628   */\n      dup2\n        /* \"#utility.yul\":5599:5629   */\n      tag_104\n      jump\t// in\n    tag_173:\n        /* \"#utility.yul\":5498:5635   */\n      swap3\n      swap2\n      pop\n      pop\n      jump\t// out\n        /* \"#utility.yul\":5641:5986   */\n    tag_36:\n        /* \"#utility.yul\":5708:5714   */\n      0x00\n        /* \"#utility.yul\":5757:5759   */\n      0x20\n        /* \"#utility.yul\":5745:5754   */\n      dup3\n        /* \"#utility.yul\":5736:5743   */\n      dup5\n        /* \"#utility.yul\":5732:5755   */\n      sub\n        /* \"#utility.yul\":5728:5760   */\n      slt\n        /* \"#utility.yul\":5725:5844   */\n      iszero\n      tag_175\n      jumpi\n        /* \"#utility.yul\":5763:5842   */\n      tag_176\n      tag_87\n      jump\t// in\n    tag_176:\n        /* \"#utility.yul\":5725:5844   */\n    tag_175:\n        /* \"#utility.yul\":5883:5884   */\n      0x00\n        /* \"#utility.yul\":5908:5969   */\n      tag_177\n        /* \"#utility.yul\":5961:5968   */\n      dup5\n        /* \"#utility.yul\":5952:5958   */\n      dup3\n        /* \"#utility.yul\":5941:5950   */\n      dup6\n        /* \"#utility.yul\":5937:5959   */\n      add\n        /* \"#utility.yul\":5908:5969   */\n      tag_105\n      jump\t// in\n    tag_177:\n        /* \"#utility.yul\":5898:5969   */\n      swap2\n      pop\n        /* \"#utility.yul\":5854:5979   */\n      pop\n        /* \"#utility.yul\":5641:5986   */\n      swap3\n      swap2\n      pop\n      pop\n      jump\t// out\n        /* \"#utility.yul\":5992:6186   */\n    tag_46:\n        /* \"#utility.yul\":6032:6036   */\n      0x00\n        /* \"#utility.yul\":6052:6072   */\n      tag_179\n        /* \"#utility.yul\":6070:6071   */\n      dup3\n        /* \"#utility.yul\":6052:6072   */\n      tag_94\n      jump\t// in\n    tag_179:\n        /* \"#utility.yul\":6047:6072   */\n      swap2\n      pop\n        /* \"#utility.yul\":6086:6106   */\n      tag_180\n        /* \"#utility.yul\":6104:6105   */\n      dup4\n        /* \"#utility.yul\":6086:6106   */\n      tag_94\n      jump\t// in\n    tag_180:\n        /* \"#utility.yul\":6081:6106   */\n      swap3\n      pop\n        /* \"#utility.yul\":6130:6131   */\n      dup3\n        /* \"#utility.yul\":6127:6128   */\n      dup3\n        /* \"#utility.yul\":6123:6132   */\n      sub\n        /* \"#utility.yul\":6115:6132   */\n      swap1\n      pop\n        /* \"#utility.yul\":6154:6155   */\n      dup2\n        /* \"#utility.yul\":6148:6152   */\n      dup2\n        /* \"#utility.yul\":6145:6156   */\n      gt\n        /* \"#utility.yul\":6142:6179   */\n      iszero\n      tag_181\n      jumpi\n        /* \"#utility.yul\":6159:6177   */\n      tag_182\n      tag_100\n      jump\t// in\n    tag_182:\n        /* \"#utility.yul\":6142:6179   */\n    tag_181:\n        /* \"#utility.yul\":5992:6186   */\n      swap3\n      swap2\n      pop\n      pop\n      jump\t// out\n        /* \"#utility.yul\":6192:6524   */\n    tag_49:\n        /* \"#utility.yul\":6313:6317   */\n      0x00\n        /* \"#utility.yul\":6351:6353   */\n      0x40\n        /* \"#utility.yul\":6340:6349   */\n      dup3\n        /* \"#utility.yul\":6336:6354   */\n      add\n        /* \"#utility.yul\":6328:6354   */\n      swap1\n      pop\n        /* \"#utility.yul\":6364:6435   */\n      tag_184\n        /* \"#utility.yul\":6432:6433   */\n      0x00\n        /* \"#utility.yul\":6421:6430   */\n      dup4\n        /* \"#utility.yul\":6417:6434   */\n      add\n        /* \"#utility.yul\":6408:6414   */\n      dup6\n        /* \"#utility.yul\":6364:6435   */\n      tag_101\n      jump\t// in\n    tag_184:\n        /* \"#utility.yul\":6445:6517   */\n      tag_185\n        /* \"#utility.yul\":6513:6515   */\n      0x20\n        /* \"#utility.yul\":6502:6511   */\n      dup4\n        /* \"#utility.yul\":6498:6516   */\n      add\n        /* \"#utility.yul\":6489:6495   */\n      dup5\n        /* \"#utility.yul\":6445:6517   */\n      tag_102\n      jump\t// in\n    tag_185:\n        /* \"#utility.yul\":6192:6524   */\n      swap4\n      swap3\n      pop\n      pop\n      pop\n      jump\t// out\n        /* \"#utility.yul\":6530:6704   */\n    tag_106:\n        /* \"#utility.yul\":6670:6696   */\n      0x546f6b656e73206d75737420626520646966666572656e740000000000000000\n        /* \"#utility.yul\":6666:6667   */\n      0x00\n        /* \"#utility.yul\":6658:6664   */\n      dup3\n        /* \"#utility.yul\":6654:6668   */\n      add\n        /* \"#utility.yul\":6647:6697   */\n      mstore\n        /* \"#utility.yul\":6530:6704   */\n      pop\n      jump\t// out\n        /* \"#utility.yul\":6710:7076   */\n    tag_107:\n        /* \"#utility.yul\":6852:6855   */\n      0x00\n        /* \"#utility.yul\":6873:6940   */\n      tag_188\n        /* \"#utility.yul\":6937:6939   */\n      0x18\n        /* \"#utility.yul\":6932:6935   */\n      dup4\n        /* \"#utility.yul\":6873:6940   */\n      tag_97\n      jump\t// in\n    tag_188:\n        /* \"#utility.yul\":6866:6940   */\n      swap2\n      pop\n        /* \"#utility.yul\":6949:7042   */\n      tag_189\n        /* \"#utility.yul\":7038:7041   */\n      dup3\n        /* \"#utility.yul\":6949:7042   */\n      tag_106\n      jump\t// in\n    tag_189:\n        /* \"#utility.yul\":7067:7069   */\n      0x20\n        /* \"#utility.yul\":7062:7065   */\n      dup3\n        /* \"#utility.yul\":7058:7070   */\n      add\n        /* \"#utility.yul\":7051:7070   */\n      swap1\n      pop\n        /* \"#utility.yul\":6710:7076   */\n      swap2\n      swap1\n      pop\n      jump\t// out\n        /* \"#utility.yul\":7082:7501   */\n    tag_60:\n        /* \"#utility.yul\":7248:7252   */\n      0x00\n        /* \"#utility.yul\":7286:7288   */\n      0x20\n        /* \"#utility.yul\":7275:7284   */\n      dup3\n        /* \"#utility.yul\":7271:7289   */\n      add\n        /* \"#utility.yul\":7263:7289   */\n      swap1\n      pop\n        /* \"#utility.yul\":7335:7344   */\n      dup2\n        /* \"#utility.yul\":7329:7333   */\n      dup2\n        /* \"#utility.yul\":7325:7345   */\n      sub\n        /* \"#utility.yul\":7321:7322   */\n      0x00\n        /* \"#utility.yul\":7310:7319   */\n      dup4\n        /* \"#utility.yul\":7306:7323   */\n      add\n        /* \"#utility.yul\":7299:7346   */\n      mstore\n        /* \"#utility.yul\":7363:7494   */\n      tag_191\n        /* \"#utility.yul\":7489:7493   */\n      dup2\n        /* \"#utility.yul\":7363:7494   */\n      tag_107\n      jump\t// in\n    tag_191:\n        /* \"#utility.yul\":7355:7494   */\n      swap1\n      pop\n        /* \"#utility.yul\":7082:7501   */\n      swap2\n      swap1\n      pop\n      jump\t// out\n        /* \"#utility.yul\":7507:7677   */\n    tag_108:\n        /* \"#utility.yul\":7647:7669   */\n      0x496e73756666696369656e742062616c616e6365000000000000000000000000\n        /* \"#utility.yul\":7643:7644   */\n      0x00\n        /* \"#utility.yul\":7635:7641   */\n      dup3\n        /* \"#utility.yul\":7631:7645   */\n      add\n        /* \"#utility.yul\":7624:7670   */\n      mstore\n        /* \"#utility.yul\":7507:7677   */\n      pop\n      jump\t// out\n        /* \"#utility.yul\":7683:8049   */\n    tag_109:\n        /* \"#utility.yul\":7825:7828   */\n      0x00\n        /* \"#utility.yul\":7846:7913   */\n      tag_194\n        /* \"#utility.yul\":7910:7912   */\n      0x14\n        /* \"#utility.yul\":7905:7908   */\n      dup4\n        /* \"#utility.yul\":7846:7913   */\n      tag_97\n      jump\t// in\n    tag_194:\n        /* \"#utility.yul\":7839:7913   */\n      swap2\n      pop\n        /* \"#utility.yul\":7922:8015   */\n      tag_195\n        /* \"#utility.yul\":8011:8014   */\n      dup3\n        /* \"#utility.yul\":7922:8015   */\n      tag_108\n      jump\t// in\n    tag_195:\n        /* \"#utility.yul\":8040:8042   */\n      0x20\n        /* \"#utility.yul\":8035:8038   */\n      dup3\n        /* \"#utility.yul\":8031:8043   */\n      add\n        /* \"#utility.yul\":8024:8043   */\n      swap1\n      pop\n        /* \"#utility.yul\":7683:8049   */\n      swap2\n      swap1\n      pop\n      jump\t// out\n        /* \"#utility.yul\":8055:8474   */\n    tag_67:\n        /* \"#utility.yul\":8221:8225   */\n      0x00\n        /* \"#utility.yul\":8259:8261   */\n      0x20\n        /* \"#utility.yul\":8248:8257   */\n      dup3\n        /* \"#utility.yul\":8244:8262   */\n      add\n        /* \"#utility.yul\":8236:8262   */\n      swap1\n      pop\n        /* \"#utility.yul\":8308:8317   */\n      dup2\n        /* \"#utility.yul\":8302:8306   */\n      dup2\n        /* \"#utility.yul\":8298:8318   */\n      sub\n        /* \"#utility.yul\":8294:8295   */\n      0x00\n        /* \"#utility.yul\":8283:8292   */\n      dup4\n        /* \"#utility.yul\":8279:8296   */\n      add\n        /* \"#utility.yul\":8272:8319   */\n      mstore\n        /* \"#utility.yul\":8336:8467   */\n      tag_197\n        /* \"#utility.yul\":8462:8466   */\n      dup2\n        /* \"#utility.yul\":8336:8467   */\n      tag_109\n      jump\t// in\n    tag_197:\n        /* \"#utility.yul\":8328:8467   */\n      swap1\n      pop\n        /* \"#utility.yul\":8055:8474   */\n      swap2\n      swap1\n      pop\n      jump\t// out\n        /* \"#utility.yul\":8480:8890   */\n    tag_69:\n        /* \"#utility.yul\":8520:8527   */\n      0x00\n        /* \"#utility.yul\":8543:8563   */\n      tag_199\n        /* \"#utility.yul\":8561:8562   */\n      dup3\n        /* \"#utility.yul\":8543:8563   */\n      tag_94\n      jump\t// in\n    tag_199:\n        /* \"#utility.yul\":8538:8563   */\n      swap2\n      pop\n        /* \"#utility.yul\":8577:8597   */\n      tag_200\n        /* \"#utility.yul\":8595:8596   */\n      dup4\n        /* \"#utility.yul\":8577:8597   */\n      tag_94\n      jump\t// in\n    tag_200:\n        /* \"#utility.yul\":8572:8597   */\n      swap3\n      pop\n        /* \"#utility.yul\":8632:8633   */\n      dup3\n        /* \"#utility.yul\":8629:8630   */\n      dup3\n        /* \"#utility.yul\":8625:8634   */\n      mul\n        /* \"#utility.yul\":8654:8684   */\n      tag_201\n        /* \"#utility.yul\":8672:8683   */\n      dup2\n        /* \"#utility.yul\":8654:8684   */\n      tag_94\n      jump\t// in\n    tag_201:\n        /* \"#utility.yul\":8643:8684   */\n      swap2\n      pop\n        /* \"#utility.yul\":8833:8834   */\n      dup3\n        /* \"#utility.yul\":8824:8831   */\n      dup3\n        /* \"#utility.yul\":8820:8835   */\n      div\n        /* \"#utility.yul\":8817:8818   */\n      dup5\n        /* \"#utility.yul\":8814:8836   */\n      eq\n        /* \"#utility.yul\":8794:8795   */\n      dup4\n        /* \"#utility.yul\":8787:8796   */\n      iszero\n        /* \"#utility.yul\":8767:8850   */\n      or\n        /* \"#utility.yul\":8744:8883   */\n      tag_202\n      jumpi\n        /* \"#utility.yul\":8863:8881   */\n      tag_203\n      tag_100\n      jump\t// in\n    tag_203:\n        /* \"#utility.yul\":8744:8883   */\n    tag_202:\n        /* \"#utility.yul\":8528:8890   */\n      pop\n        /* \"#utility.yul\":8480:8890   */\n      swap3\n      swap2\n      pop\n      pop\n      jump\t// out\n        /* \"#utility.yul\":8896:9076   */\n    tag_110:\n        /* \"#utility.yul\":8944:9021   */\n      0x4e487b7100000000000000000000000000000000000000000000000000000000\n        /* \"#utility.yul\":8941:8942   */\n      0x00\n        /* \"#utility.yul\":8934:9022   */\n      mstore\n        /* \"#utility.yul\":9041:9045   */\n      0x12\n        /* \"#utility.yul\":9038:9039   */\n      0x04\n        /* \"#utility.yul\":9031:9046   */\n      mstore\n        /* \"#utility.yul\":9065:9069   */\n      0x24\n        /* \"#utility.yul\":9062:9063   */\n      0x00\n        /* \"#utility.yul\":9055:9070   */\n      revert\n        /* \"#utility.yul\":9082:9267   */\n    tag_71:\n        /* \"#utility.yul\":9122:9123   */\n      0x00\n        /* \"#utility.yul\":9139:9159   */\n      tag_206\n        /* \"#utility.yul\":9157:9158   */\n      dup3\n        /* \"#utility.yul\":9139:9159   */\n      tag_94\n      jump\t// in\n    tag_206:\n        /* \"#utility.yul\":9134:9159   */\n      swap2\n      pop\n        /* \"#utility.yul\":9173:9193   */\n      tag_207\n        /* \"#utility.yul\":9191:9192   */\n      dup4\n        /* \"#utility.yul\":9173:9193   */\n      tag_94\n      jump\t// in\n    tag_207:\n        /* \"#utility.yul\":9168:9193   */\n      swap3\n      pop\n        /* \"#utility.yul\":9212:9213   */\n      dup3\n        /* \"#utility.yul\":9202:9237   */\n      tag_208\n      jumpi\n        /* \"#utility.yul\":9217:9235   */\n      tag_209\n      tag_110\n      jump\t// in\n    tag_209:\n        /* \"#utility.yul\":9202:9237   */\n    tag_208:\n        /* \"#utility.yul\":9259:9260   */\n      dup3\n        /* \"#utility.yul\":9256:9257   */\n      dup3\n        /* \"#utility.yul\":9252:9261   */\n      div\n        /* \"#utility.yul\":9247:9261   */\n      swap1\n      pop\n        /* \"#utility.yul\":9082:9267   */\n      swap3\n      swap2\n      pop\n      pop\n      jump\t// out\n\n    auxdata: 0xa26469706673582212206ba1c6914cabdde873d0afd7e5d6ce9e0940f8d149912ed5b508a525795e0d5764736f6c63430008120033\n}\n",
				"bytecode": {
					"linkReferences": {},
					"object": "608060405234801561001057600080fd5b50610d52806100206000396000f3fe608060405234801561001057600080fd5b506004361061004c5760003560e01c80631b542d74146100515780637364fae81461006d578063ef1b316614610089578063f70d1d98146100a5575b600080fd5b61006b600480360381019061006691906108a2565b6100c1565b005b61008760048036038101906100829190610918565b610146565b005b6100a3600480360381019061009e9190610918565b61030f565b005b6100bf60048036038101906100ba9190610958565b6104d4565b005b816000806101000a81548173ffffffffffffffffffffffffffffffffffffffff021916908373ffffffffffffffffffffffffffffffffffffffff16021790555080600160006101000a81548173ffffffffffffffffffffffffffffffffffffffff021916908373ffffffffffffffffffffffffffffffffffffffff1602179055505050565b6000821180156101565750600081115b610195576040517f08c379a000000000000000000000000000000000000000000000000000000000815260040161018c90610a08565b60405180910390fd5b81600260008282546101a79190610a57565b9250508190555080600360008282546101c09190610a57565b9250508190555060008054906101000a900473ffffffffffffffffffffffffffffffffffffffff1673ffffffffffffffffffffffffffffffffffffffff166323b872dd3330856040518463ffffffff1660e01b815260040161022493929190610aa9565b6020604051808303816000875af1158015610243573d6000803e3d6000fd5b505050506040513d601f19601f820116820180604052508101906102679190610b18565b50600160009054906101000a900473ffffffffffffffffffffffffffffffffffffffff1673ffffffffffffffffffffffffffffffffffffffff166323b872dd3330846040518463ffffffff1660e01b81526004016102c793929190610aa9565b6020604051808303816000875af11580156102e6573d6000803e3d6000fd5b505050506040513d601f19601f8201168201806040525081019061030a9190610b18565b505050565b60008211801561031f5750600081115b61035e576040517f08c379a000000000000000000000000000000000000000000000000000000000815260040161035590610a08565b60405180910390fd5b81600260008282546103709190610b45565b9250508190555080600360008282546103899190610b45565b9250508190555060008054906101000a900473ffffffffffffffffffffffffffffffffffffffff1673ffffffffffffffffffffffffffffffffffffffff1663a9059cbb33846040518363ffffffff1660e01b81526004016103eb929190610b79565b6020604051808303816000875af115801561040a573d6000803e3d6000fd5b505050506040513d601f19601f8201168201806040525081019061042e9190610b18565b50600160009054906101000a900473ffffffffffffffffffffffffffffffffffffffff1673ffffffffffffffffffffffffffffffffffffffff1663a9059cbb33836040518363ffffffff1660e01b815260040161048c929190610b79565b6020604051808303816000875af11580156104ab573d6000803e3d6000fd5b505050506040513d601f19601f820116820180604052508101906104cf9190610b18565b505050565b8073ffffffffffffffffffffffffffffffffffffffff168273ffffffffffffffffffffffffffffffffffffffff1603610542576040517f08c379a000000000000000000000000000000000000000000000000000000000815260040161053990610bee565b60405180910390fd5b60008060009054906101000a900473ffffffffffffffffffffffffffffffffffffffff1673ffffffffffffffffffffffffffffffffffffffff168373ffffffffffffffffffffffffffffffffffffffff16146105a0576003546105a4565b6002545b905060008060009054906101000a900473ffffffffffffffffffffffffffffffffffffffff1673ffffffffffffffffffffffffffffffffffffffff168373ffffffffffffffffffffffffffffffffffffffff161461060457600354610608565b6002545b90508482101561064d576040517f08c379a000000000000000000000000000000000000000000000000000000000815260040161064490610c5a565b60405180910390fd5b600082828761065c9190610c7a565b6106669190610ceb565b905060008054906101000a900473ffffffffffffffffffffffffffffffffffffffff1673ffffffffffffffffffffffffffffffffffffffff168573ffffffffffffffffffffffffffffffffffffffff16036106f25785600260008282546106cd9190610b45565b9250508190555080600360008282546106e69190610a57565b92505081905550610725565b85600360008282546107049190610b45565b92505081905550806002600082825461071d9190610a57565b925050819055505b8473ffffffffffffffffffffffffffffffffffffffff166323b872dd3330896040518463ffffffff1660e01b815260040161076293929190610aa9565b6020604051808303816000875af1158015610781573d6000803e3d6000fd5b505050506040513d601f19601f820116820180604052508101906107a59190610b18565b508373ffffffffffffffffffffffffffffffffffffffff1663a9059cbb33836040518363ffffffff1660e01b81526004016107e1929190610b79565b6020604051808303816000875af1158015610800573d6000803e3d6000fd5b505050506040513d601f19601f820116820180604052508101906108249190610b18565b50505050505050565b600080fd5b600073ffffffffffffffffffffffffffffffffffffffff82169050919050565b600061085d82610832565b9050919050565b600061086f82610852565b9050919050565b61087f81610864565b811461088a57600080fd5b50565b60008135905061089c81610876565b92915050565b600080604083850312156108b9576108b861082d565b5b60006108c78582860161088d565b92505060206108d88582860161088d565b9150509250929050565b6000819050919050565b6108f5816108e2565b811461090057600080fd5b50565b600081359050610912816108ec565b92915050565b6000806040838503121561092f5761092e61082d565b5b600061093d85828601610903565b925050602061094e85828601610903565b9150509250929050565b6000806000606084860312156109715761097061082d565b5b600061097f86828701610903565b93505060206109908682870161088d565b92505060406109a18682870161088d565b9150509250925092565b600082825260208201905092915050565b7f416d6f756e742053686f756c64206265203e2030000000000000000000000000600082015250565b60006109f26014836109ab565b91506109fd826109bc565b602082019050919050565b60006020820190508181036000830152610a21816109e5565b9050919050565b7f4e487b7100000000000000000000000000000000000000000000000000000000600052601160045260246000fd5b6000610a62826108e2565b9150610a6d836108e2565b9250828201905080821115610a8557610a84610a28565b5b92915050565b610a9481610852565b82525050565b610aa3816108e2565b82525050565b6000606082019050610abe6000830186610a8b565b610acb6020830185610a8b565b610ad86040830184610a9a565b949350505050565b60008115159050919050565b610af581610ae0565b8114610b0057600080fd5b50565b600081519050610b1281610aec565b92915050565b600060208284031215610b2e57610b2d61082d565b5b6000610b3c84828501610b03565b91505092915050565b6000610b50826108e2565b9150610b5b836108e2565b9250828203905081811115610b7357610b72610a28565b5b92915050565b6000604082019050610b8e6000830185610a8b565b610b9b6020830184610a9a565b9392505050565b7f546f6b656e73206d75737420626520646966666572656e740000000000000000600082015250565b6000610bd86018836109ab565b9150610be382610ba2565b602082019050919050565b60006020820190508181036000830152610c0781610bcb565b9050919050565b7f496e73756666696369656e742062616c616e6365000000000000000000000000600082015250565b6000610c446014836109ab565b9150610c4f82610c0e565b602082019050919050565b60006020820190508181036000830152610c7381610c37565b9050919050565b6000610c85826108e2565b9150610c90836108e2565b9250828202610c9e816108e2565b91508282048414831517610cb557610cb4610a28565b5b5092915050565b7f4e487b7100000000000000000000000000000000000000000000000000000000600052601260045260246000fd5b6000610cf6826108e2565b9150610d01836108e2565b925082610d1157610d10610cbc565b5b82820490509291505056fea26469706673582212206ba1c6914cabdde873d0afd7e5d6ce9e0940f8d149912ed5b508a525795e0d5764736f6c63430008120033",
					"opcodes": "PUSH1 0x80 PUSH1 0x40 MSTORE CALLVALUE DUP1 ISZERO PUSH2 0x10 JUMPI PUSH1 0x0 DUP1 REVERT JUMPDEST POP PUSH2 0xD52 DUP1 PUSH2 0x20 PUSH1 0x0 CODECOPY PUSH1 0x0 RETURN INVALID PUSH1 0x80 PUSH1 0x40 MSTORE CALLVALUE DUP1 ISZERO PUSH2 0x10 JUMPI PUSH1 0x0 DUP1 REVERT JUMPDEST POP PUSH1 0x4 CALLDATASIZE LT PUSH2 0x4C JUMPI PUSH1 0x0 CALLDATALOAD PUSH1 0xE0 SHR DUP1 PUSH4 0x1B542D74 EQ PUSH2 0x51 JUMPI DUP1 PUSH4 0x7364FAE8 EQ PUSH2 0x6D JUMPI DUP1 PUSH4 0xEF1B3166 EQ PUSH2 0x89 JUMPI DUP1 PUSH4 0xF70D1D98 EQ PUSH2 0xA5 JUMPI JUMPDEST PUSH1 0x0 DUP1 REVERT JUMPDEST PUSH2 0x6B PUSH1 0x4 DUP1 CALLDATASIZE SUB DUP2 ADD SWAP1 PUSH2 0x66 SWAP2 SWAP1 PUSH2 0x8A2 JUMP JUMPDEST PUSH2 0xC1 JUMP JUMPDEST STOP JUMPDEST PUSH2 0x87 PUSH1 0x4 DUP1 CALLDATASIZE SUB DUP2 ADD SWAP1 PUSH2 0x82 SWAP2 SWAP1 PUSH2 0x918 JUMP JUMPDEST PUSH2 0x146 JUMP JUMPDEST STOP JUMPDEST PUSH2 0xA3 PUSH1 0x4 DUP1 CALLDATASIZE SUB DUP2 ADD SWAP1 PUSH2 0x9E SWAP2 SWAP1 PUSH2 0x918 JUMP JUMPDEST PUSH2 0x30F JUMP JUMPDEST STOP JUMPDEST PUSH2 0xBF PUSH1 0x4 DUP1 CALLDATASIZE SUB DUP2 ADD SWAP1 PUSH2 0xBA SWAP2 SWAP1 PUSH2 0x958 JUMP JUMPDEST PUSH2 0x4D4 JUMP JUMPDEST STOP JUMPDEST DUP2 PUSH1 0x0 DUP1 PUSH2 0x100 EXP DUP2 SLOAD DUP2 PUSH20 0xFFFFFFFFFFFFFFFFFFFFFFFFFFFFFFFFFFFFFFFF MUL NOT AND SWAP1 DUP4 PUSH20 0xFFFFFFFFFFFFFFFFFFFFFFFFFFFFFFFFFFFFFFFF AND MUL OR SWAP1 SSTORE POP DUP1 PUSH1 0x1 PUSH1 0x0 PUSH2 0x100 EXP DUP2 SLOAD DUP2 PUSH20 0xFFFFFFFFFFFFFFFFFFFFFFFFFFFFFFFFFFFFFFFF MUL NOT AND SWAP1 DUP4 PUSH20 0xFFFFFFFFFFFFFFFFFFFFFFFFFFFFFFFFFFFFFFFF AND MUL OR SWAP1 SSTORE POP POP POP JUMP JUMPDEST PUSH1 0x0 DUP3 GT DUP1 ISZERO PUSH2 0x156 JUMPI POP PUSH1 0x0 DUP2 GT JUMPDEST PUSH2 0x195 JUMPI PUSH1 0x40 MLOAD PUSH32 0x8C379A000000000000000000000000000000000000000000000000000000000 DUP2 MSTORE PUSH1 0x4 ADD PUSH2 0x18C SWAP1 PUSH2 0xA08 JUMP JUMPDEST PUSH1 0x40 MLOAD DUP1 SWAP2 SUB SWAP1 REVERT JUMPDEST DUP2 PUSH1 0x2 PUSH1 0x0 DUP3 DUP3 SLOAD PUSH2 0x1A7 SWAP2 SWAP1 PUSH2 0xA57 JUMP JUMPDEST SWAP3 POP POP DUP2 SWAP1 SSTORE POP DUP1 PUSH1 0x3 PUSH1 0x0 DUP3 DUP3 SLOAD PUSH2 0x1C0 SWAP2 SWAP1 PUSH2 0xA57 JUMP JUMPDEST SWAP3 POP POP DUP2 SWAP1 SSTORE POP PUSH1 0x0 DUP1 SLOAD SWAP1 PUSH2 0x100 EXP SWAP1 DIV PUSH20 0xFFFFFFFFFFFFFFFFFFFFFFFFFFFFFFFFFFFFFFFF AND PUSH20 0xFFFFFFFFFFFFFFFFFFFFFFFFFFFFFFFFFFFFFFFF AND PUSH4 0x23B872DD CALLER ADDRESS DUP6 PUSH1 0x40 MLOAD DUP5 PUSH4 0xFFFFFFFF AND PUSH1 0xE0 SHL DUP2 MSTORE PUSH1 0x4 ADD PUSH2 0x224 SWAP4 SWAP3 SWAP2 SWAP1 PUSH2 0xAA9 JUMP JUMPDEST PUSH1 0x20 PUSH1 0x40 MLOAD DUP1 DUP4 SUB DUP2 PUSH1 0x0 DUP8 GAS CALL ISZERO DUP1 ISZERO PUSH2 0x243 JUMPI RETURNDATASIZE PUSH1 0x0 DUP1 RETURNDATACOPY RETURNDATASIZE PUSH1 0x0 REVERT JUMPDEST POP POP POP POP PUSH1 0x40 MLOAD RETURNDATASIZE PUSH1 0x1F NOT PUSH1 0x1F DUP3 ADD AND DUP3 ADD DUP1 PUSH1 0x40 MSTORE POP DUP2 ADD SWAP1 PUSH2 0x267 SWAP2 SWAP1 PUSH2 0xB18 JUMP JUMPDEST POP PUSH1 0x1 PUSH1 0x0 SWAP1 SLOAD SWAP1 PUSH2 0x100 EXP SWAP1 DIV PUSH20 0xFFFFFFFFFFFFFFFFFFFFFFFFFFFFFFFFFFFFFFFF AND PUSH20 0xFFFFFFFFFFFFFFFFFFFFFFFFFFFFFFFFFFFFFFFF AND PUSH4 0x23B872DD CALLER ADDRESS DUP5 PUSH1 0x40 MLOAD DUP5 PUSH4 0xFFFFFFFF AND PUSH1 0xE0 SHL DUP2 MSTORE PUSH1 0x4 ADD PUSH2 0x2C7 SWAP4 SWAP3 SWAP2 SWAP1 PUSH2 0xAA9 JUMP JUMPDEST PUSH1 0x20 PUSH1 0x40 MLOAD DUP1 DUP4 SUB DUP2 PUSH1 0x0 DUP8 GAS CALL ISZERO DUP1 ISZERO PUSH2 0x2E6 JUMPI RETURNDATASIZE PUSH1 0x0 DUP1 RETURNDATACOPY RETURNDATASIZE PUSH1 0x0 REVERT JUMPDEST POP POP POP POP PUSH1 0x40 MLOAD RETURNDATASIZE PUSH1 0x1F NOT PUSH1 0x1F DUP3 ADD AND DUP3 ADD DUP1 PUSH1 0x40 MSTORE POP DUP2 ADD SWAP1 PUSH2 0x30A SWAP2 SWAP1 PUSH2 0xB18 JUMP JUMPDEST POP POP POP JUMP JUMPDEST PUSH1 0x0 DUP3 GT DUP1 ISZERO PUSH2 0x31F JUMPI POP PUSH1 0x0 DUP2 GT JUMPDEST PUSH2 0x35E JUMPI PUSH1 0x40 MLOAD PUSH32 0x8C379A000000000000000000000000000000000000000000000000000000000 DUP2 MSTORE PUSH1 0x4 ADD PUSH2 0x355 SWAP1 PUSH2 0xA08 JUMP JUMPDEST PUSH1 0x40 MLOAD DUP1 SWAP2 SUB SWAP1 REVERT JUMPDEST DUP2 PUSH1 0x2 PUSH1 0x0 DUP3 DUP3 SLOAD PUSH2 0x370 SWAP2 SWAP1 PUSH2 0xB45 JUMP JUMPDEST SWAP3 POP POP DUP2 SWAP1 SSTORE POP DUP1 PUSH1 0x3 PUSH1 0x0 DUP3 DUP3 SLOAD PUSH2 0x389 SWAP2 SWAP1 PUSH2 0xB45 JUMP JUMPDEST SWAP3 POP POP DUP2 SWAP1 SSTORE POP PUSH1 0x0 DUP1 SLOAD SWAP1 PUSH2 0x100 EXP SWAP1 DIV PUSH20 0xFFFFFFFFFFFFFFFFFFFFFFFFFFFFFFFFFFFFFFFF AND PUSH20 0xFFFFFFFFFFFFFFFFFFFFFFFFFFFFFFFFFFFFFFFF AND PUSH4 0xA9059CBB CALLER DUP5 PUSH1 0x40 MLOAD DUP4 PUSH4 0xFFFFFFFF AND PUSH1 0xE0 SHL DUP2 MSTORE PUSH1 0x4 ADD PUSH2 0x3EB SWAP3 SWAP2 SWAP1 PUSH2 0xB79 JUMP JUMPDEST PUSH1 0x20 PUSH1 0x40 MLOAD DUP1 DUP4 SUB DUP2 PUSH1 0x0 DUP8 GAS CALL ISZERO DUP1 ISZERO PUSH2 0x40A JUMPI RETURNDATASIZE PUSH1 0x0 DUP1 RETURNDATACOPY RETURNDATASIZE PUSH1 0x0 REVERT JUMPDEST POP POP POP POP PUSH1 0x40 MLOAD RETURNDATASIZE PUSH1 0x1F NOT PUSH1 0x1F DUP3 ADD AND DUP3 ADD DUP1 PUSH1 0x40 MSTORE POP DUP2 ADD SWAP1 PUSH2 0x42E SWAP2 SWAP1 PUSH2 0xB18 JUMP JUMPDEST POP PUSH1 0x1 PUSH1 0x0 SWAP1 SLOAD SWAP1 PUSH2 0x100 EXP SWAP1 DIV PUSH20 0xFFFFFFFFFFFFFFFFFFFFFFFFFFFFFFFFFFFFFFFF AND PUSH20 0xFFFFFFFFFFFFFFFFFFFFFFFFFFFFFFFFFFFFFFFF AND PUSH4 0xA9059CBB CALLER DUP4 PUSH1 0x40 MLOAD DUP4 PUSH4 0xFFFFFFFF AND PUSH1 0xE0 SHL DUP2 MSTORE PUSH1 0x4 ADD PUSH2 0x48C SWAP3 SWAP2 SWAP1 PUSH2 0xB79 JUMP JUMPDEST PUSH1 0x20 PUSH1 0x40 MLOAD DUP1 DUP4 SUB DUP2 PUSH1 0x0 DUP8 GAS CALL ISZERO DUP1 ISZERO PUSH2 0x4AB JUMPI RETURNDATASIZE PUSH1 0x0 DUP1 RETURNDATACOPY RETURNDATASIZE PUSH1 0x0 REVERT JUMPDEST POP POP POP POP PUSH1 0x40 MLOAD RETURNDATASIZE PUSH1 0x1F NOT PUSH1 0x1F DUP3 ADD AND DUP3 ADD DUP1 PUSH1 0x40 MSTORE POP DUP2 ADD SWAP1 PUSH2 0x4CF SWAP2 SWAP1 PUSH2 0xB18 JUMP JUMPDEST POP POP POP JUMP JUMPDEST DUP1 PUSH20 0xFFFFFFFFFFFFFFFFFFFFFFFFFFFFFFFFFFFFFFFF AND DUP3 PUSH20 0xFFFFFFFFFFFFFFFFFFFFFFFFFFFFFFFFFFFFFFFF AND SUB PUSH2 0x542 JUMPI PUSH1 0x40 MLOAD PUSH32 0x8C379A000000000000000000000000000000000000000000000000000000000 DUP2 MSTORE PUSH1 0x4 ADD PUSH2 0x539 SWAP1 PUSH2 0xBEE JUMP JUMPDEST PUSH1 0x40 MLOAD DUP1 SWAP2 SUB SWAP1 REVERT JUMPDEST PUSH1 0x0 DUP1 PUSH1 0x0 SWAP1 SLOAD SWAP1 PUSH2 0x100 EXP SWAP1 DIV PUSH20 0xFFFFFFFFFFFFFFFFFFFFFFFFFFFFFFFFFFFFFFFF AND PUSH20 0xFFFFFFFFFFFFFFFFFFFFFFFFFFFFFFFFFFFFFFFF AND DUP4 PUSH20 0xFFFFFFFFFFFFFFFFFFFFFFFFFFFFFFFFFFFFFFFF AND EQ PUSH2 0x5A0 JUMPI PUSH1 0x3 SLOAD PUSH2 0x5A4 JUMP JUMPDEST PUSH1 0x2 SLOAD JUMPDEST SWAP1 POP PUSH1 0x0 DUP1 PUSH1 0x0 SWAP1 SLOAD SWAP1 PUSH2 0x100 EXP SWAP1 DIV PUSH20 0xFFFFFFFFFFFFFFFFFFFFFFFFFFFFFFFFFFFFFFFF AND PUSH20 0xFFFFFFFFFFFFFFFFFFFFFFFFFFFFFFFFFFFFFFFF AND DUP4 PUSH20 0xFFFFFFFFFFFFFFFFFFFFFFFFFFFFFFFFFFFFFFFF AND EQ PUSH2 0x604 JUMPI PUSH1 0x3 SLOAD PUSH2 0x608 JUMP JUMPDEST PUSH1 0x2 SLOAD JUMPDEST SWAP1 POP DUP5 DUP3 LT ISZERO PUSH2 0x64D JUMPI PUSH1 0x40 MLOAD PUSH32 0x8C379A000000000000000000000000000000000000000000000000000000000 DUP2 MSTORE PUSH1 0x4 ADD PUSH2 0x644 SWAP1 PUSH2 0xC5A JUMP JUMPDEST PUSH1 0x40 MLOAD DUP1 SWAP2 SUB SWAP1 REVERT JUMPDEST PUSH1 0x0 DUP3 DUP3 DUP8 PUSH2 0x65C SWAP2 SWAP1 PUSH2 0xC7A JUMP JUMPDEST PUSH2 0x666 SWAP2 SWAP1 PUSH2 0xCEB JUMP JUMPDEST SWAP1 POP PUSH1 0x0 DUP1 SLOAD SWAP1 PUSH2 0x100 EXP SWAP1 DIV PUSH20 0xFFFFFFFFFFFFFFFFFFFFFFFFFFFFFFFFFFFFFFFF AND PUSH20 0xFFFFFFFFFFFFFFFFFFFFFFFFFFFFFFFFFFFFFFFF AND DUP6 PUSH20 0xFFFFFFFFFFFFFFFFFFFFFFFFFFFFFFFFFFFFFFFF AND SUB PUSH2 0x6F2 JUMPI DUP6 PUSH1 0x2 PUSH1 0x0 DUP3 DUP3 SLOAD PUSH2 0x6CD SWAP2 SWAP1 PUSH2 0xB45 JUMP JUMPDEST SWAP3 POP POP DUP2 SWAP1 SSTORE POP DUP1 PUSH1 0x3 PUSH1 0x0 DUP3 DUP3 SLOAD PUSH2 0x6E6 SWAP2 SWAP1 PUSH2 0xA57 JUMP JUMPDEST SWAP3 POP POP DUP2 SWAP1 SSTORE POP PUSH2 0x725 JUMP JUMPDEST DUP6 PUSH1 0x3 PUSH1 0x0 DUP3 DUP3 SLOAD PUSH2 0x704 SWAP2 SWAP1 PUSH2 0xB45 JUMP JUMPDEST SWAP3 POP POP DUP2 SWAP1 SSTORE POP DUP1 PUSH1 0x2 PUSH1 0x0 DUP3 DUP3 SLOAD PUSH2 0x71D SWAP2 SWAP1 PUSH2 0xA57 JUMP JUMPDEST SWAP3 POP POP DUP2 SWAP1 SSTORE POP JUMPDEST DUP5 PUSH20 0xFFFFFFFFFFFFFFFFFFFFFFFFFFFFFFFFFFFFFFFF AND PUSH4 0x23B872DD CALLER ADDRESS DUP10 PUSH1 0x40 MLOAD DUP5 PUSH4 0xFFFFFFFF AND PUSH1 0xE0 SHL DUP2 MSTORE PUSH1 0x4 ADD PUSH2 0x762 SWAP4 SWAP3 SWAP2 SWAP1 PUSH2 0xAA9 JUMP JUMPDEST PUSH1 0x20 PUSH1 0x40 MLOAD DUP1 DUP4 SUB DUP2 PUSH1 0x0 DUP8 GAS CALL ISZERO DUP1 ISZERO PUSH2 0x781 JUMPI RETURNDATASIZE PUSH1 0x0 DUP1 RETURNDATACOPY RETURNDATASIZE PUSH1 0x0 REVERT JUMPDEST POP POP POP POP PUSH1 0x40 MLOAD RETURNDATASIZE PUSH1 0x1F NOT PUSH1 0x1F DUP3 ADD AND DUP3 ADD DUP1 PUSH1 0x40 MSTORE POP DUP2 ADD SWAP1 PUSH2 0x7A5 SWAP2 SWAP1 PUSH2 0xB18 JUMP JUMPDEST POP DUP4 PUSH20 0xFFFFFFFFFFFFFFFFFFFFFFFFFFFFFFFFFFFFFFFF AND PUSH4 0xA9059CBB CALLER DUP4 PUSH1 0x40 MLOAD DUP4 PUSH4 0xFFFFFFFF AND PUSH1 0xE0 SHL DUP2 MSTORE PUSH1 0x4 ADD PUSH2 0x7E1 SWAP3 SWAP2 SWAP1 PUSH2 0xB79 JUMP JUMPDEST PUSH1 0x20 PUSH1 0x40 MLOAD DUP1 DUP4 SUB DUP2 PUSH1 0x0 DUP8 GAS CALL ISZERO DUP1 ISZERO PUSH2 0x800 JUMPI RETURNDATASIZE PUSH1 0x0 DUP1 RETURNDATACOPY RETURNDATASIZE PUSH1 0x0 REVERT JUMPDEST POP POP POP POP PUSH1 0x40 MLOAD RETURNDATASIZE PUSH1 0x1F NOT PUSH1 0x1F DUP3 ADD AND DUP3 ADD DUP1 PUSH1 0x40 MSTORE POP DUP2 ADD SWAP1 PUSH2 0x824 SWAP2 SWAP1 PUSH2 0xB18 JUMP JUMPDEST POP POP POP POP POP POP POP JUMP JUMPDEST PUSH1 0x0 DUP1 REVERT JUMPDEST PUSH1 0x0 PUSH20 0xFFFFFFFFFFFFFFFFFFFFFFFFFFFFFFFFFFFFFFFF DUP3 AND SWAP1 POP SWAP2 SWAP1 POP JUMP JUMPDEST PUSH1 0x0 PUSH2 0x85D DUP3 PUSH2 0x832 JUMP JUMPDEST SWAP1 POP SWAP2 SWAP1 POP JUMP JUMPDEST PUSH1 0x0 PUSH2 0x86F DUP3 PUSH2 0x852 JUMP JUMPDEST SWAP1 POP SWAP2 SWAP1 POP JUMP JUMPDEST PUSH2 0x87F DUP2 PUSH2 0x864 JUMP JUMPDEST DUP2 EQ PUSH2 0x88A JUMPI PUSH1 0x0 DUP1 REVERT JUMPDEST POP JUMP JUMPDEST PUSH1 0x0 DUP2 CALLDATALOAD SWAP1 POP PUSH2 0x89C DUP2 PUSH2 0x876 JUMP JUMPDEST SWAP3 SWAP2 POP POP JUMP JUMPDEST PUSH1 0x0 DUP1 PUSH1 0x40 DUP4 DUP6 SUB SLT ISZERO PUSH2 0x8B9 JUMPI PUSH2 0x8B8 PUSH2 0x82D JUMP JUMPDEST JUMPDEST PUSH1 0x0 PUSH2 0x8C7 DUP6 DUP3 DUP7 ADD PUSH2 0x88D JUMP JUMPDEST SWAP3 POP POP PUSH1 0x20 PUSH2 0x8D8 DUP6 DUP3 DUP7 ADD PUSH2 0x88D JUMP JUMPDEST SWAP2 POP POP SWAP3 POP SWAP3 SWAP1 POP JUMP JUMPDEST PUSH1 0x0 DUP2 SWAP1 POP SWAP2 SWAP1 POP JUMP JUMPDEST PUSH2 0x8F5 DUP2 PUSH2 0x8E2 JUMP JUMPDEST DUP2 EQ PUSH2 0x900 JUMPI PUSH1 0x0 DUP1 REVERT JUMPDEST POP JUMP JUMPDEST PUSH1 0x0 DUP2 CALLDATALOAD SWAP1 POP PUSH2 0x912 DUP2 PUSH2 0x8EC JUMP JUMPDEST SWAP3 SWAP2 POP POP JUMP JUMPDEST PUSH1 0x0 DUP1 PUSH1 0x40 DUP4 DUP6 SUB SLT ISZERO PUSH2 0x92F JUMPI PUSH2 0x92E PUSH2 0x82D JUMP JUMPDEST JUMPDEST PUSH1 0x0 PUSH2 0x93D DUP6 DUP3 DUP7 ADD PUSH2 0x903 JUMP JUMPDEST SWAP3 POP POP PUSH1 0x20 PUSH2 0x94E DUP6 DUP3 DUP7 ADD PUSH2 0x903 JUMP JUMPDEST SWAP2 POP POP SWAP3 POP SWAP3 SWAP1 POP JUMP JUMPDEST PUSH1 0x0 DUP1 PUSH1 0x0 PUSH1 0x60 DUP5 DUP7 SUB SLT ISZERO PUSH2 0x971 JUMPI PUSH2 0x970 PUSH2 0x82D JUMP JUMPDEST JUMPDEST PUSH1 0x0 PUSH2 0x97F DUP7 DUP3 DUP8 ADD PUSH2 0x903 JUMP JUMPDEST SWAP4 POP POP PUSH1 0x20 PUSH2 0x990 DUP7 DUP3 DUP8 ADD PUSH2 0x88D JUMP JUMPDEST SWAP3 POP POP PUSH1 0x40 PUSH2 0x9A1 DUP7 DUP3 DUP8 ADD PUSH2 0x88D JUMP JUMPDEST SWAP2 POP POP SWAP3 POP SWAP3 POP SWAP3 JUMP JUMPDEST PUSH1 0x0 DUP3 DUP3 MSTORE PUSH1 0x20 DUP3 ADD SWAP1 POP SWAP3 SWAP2 POP POP JUMP JUMPDEST PUSH32 0x416D6F756E742053686F756C64206265203E2030000000000000000000000000 PUSH1 0x0 DUP3 ADD MSTORE POP JUMP JUMPDEST PUSH1 0x0 PUSH2 0x9F2 PUSH1 0x14 DUP4 PUSH2 0x9AB JUMP JUMPDEST SWAP2 POP PUSH2 0x9FD DUP3 PUSH2 0x9BC JUMP JUMPDEST PUSH1 0x20 DUP3 ADD SWAP1 POP SWAP2 SWAP1 POP JUMP JUMPDEST PUSH1 0x0 PUSH1 0x20 DUP3 ADD SWAP1 POP DUP2 DUP2 SUB PUSH1 0x0 DUP4 ADD MSTORE PUSH2 0xA21 DUP2 PUSH2 0x9E5 JUMP JUMPDEST SWAP1 POP SWAP2 SWAP1 POP JUMP JUMPDEST PUSH32 0x4E487B7100000000000000000000000000000000000000000000000000000000 PUSH1 0x0 MSTORE PUSH1 0x11 PUSH1 0x4 MSTORE PUSH1 0x24 PUSH1 0x0 REVERT JUMPDEST PUSH1 0x0 PUSH2 0xA62 DUP3 PUSH2 0x8E2 JUMP JUMPDEST SWAP2 POP PUSH2 0xA6D DUP4 PUSH2 0x8E2 JUMP JUMPDEST SWAP3 POP DUP3 DUP3 ADD SWAP1 POP DUP1 DUP3 GT ISZERO PUSH2 0xA85 JUMPI PUSH2 0xA84 PUSH2 0xA28 JUMP JUMPDEST JUMPDEST SWAP3 SWAP2 POP POP JUMP JUMPDEST PUSH2 0xA94 DUP2 PUSH2 0x852 JUMP JUMPDEST DUP3 MSTORE POP POP JUMP JUMPDEST PUSH2 0xAA3 DUP2 PUSH2 0x8E2 JUMP JUMPDEST DUP3 MSTORE POP POP JUMP JUMPDEST PUSH1 0x0 PUSH1 0x60 DUP3 ADD SWAP1 POP PUSH2 0xABE PUSH1 0x0 DUP4 ADD DUP7 PUSH2 0xA8B JUMP JUMPDEST PUSH2 0xACB PUSH1 0x20 DUP4 ADD DUP6 PUSH2 0xA8B JUMP JUMPDEST PUSH2 0xAD8 PUSH1 0x40 DUP4 ADD DUP5 PUSH2 0xA9A JUMP JUMPDEST SWAP5 SWAP4 POP POP POP POP JUMP JUMPDEST PUSH1 0x0 DUP2 ISZERO ISZERO SWAP1 POP SWAP2 SWAP1 POP JUMP JUMPDEST PUSH2 0xAF5 DUP2 PUSH2 0xAE0 JUMP JUMPDEST DUP2 EQ PUSH2 0xB00 JUMPI PUSH1 0x0 DUP1 REVERT JUMPDEST POP JUMP JUMPDEST PUSH1 0x0 DUP2 MLOAD SWAP1 POP PUSH2 0xB12 DUP2 PUSH2 0xAEC JUMP JUMPDEST SWAP3 SWAP2 POP POP JUMP JUMPDEST PUSH1 0x0 PUSH1 0x20 DUP3 DUP5 SUB SLT ISZERO PUSH2 0xB2E JUMPI PUSH2 0xB2D PUSH2 0x82D JUMP JUMPDEST JUMPDEST PUSH1 0x0 PUSH2 0xB3C DUP5 DUP3 DUP6 ADD PUSH2 0xB03 JUMP JUMPDEST SWAP2 POP POP SWAP3 SWAP2 POP POP JUMP JUMPDEST PUSH1 0x0 PUSH2 0xB50 DUP3 PUSH2 0x8E2 JUMP JUMPDEST SWAP2 POP PUSH2 0xB5B DUP4 PUSH2 0x8E2 JUMP JUMPDEST SWAP3 POP DUP3 DUP3 SUB SWAP1 POP DUP2 DUP2 GT ISZERO PUSH2 0xB73 JUMPI PUSH2 0xB72 PUSH2 0xA28 JUMP JUMPDEST JUMPDEST SWAP3 SWAP2 POP POP JUMP JUMPDEST PUSH1 0x0 PUSH1 0x40 DUP3 ADD SWAP1 POP PUSH2 0xB8E PUSH1 0x0 DUP4 ADD DUP6 PUSH2 0xA8B JUMP JUMPDEST PUSH2 0xB9B PUSH1 0x20 DUP4 ADD DUP5 PUSH2 0xA9A JUMP JUMPDEST SWAP4 SWAP3 POP POP POP JUMP JUMPDEST PUSH32 0x546F6B656E73206D75737420626520646966666572656E740000000000000000 PUSH1 0x0 DUP3 ADD MSTORE POP JUMP JUMPDEST PUSH1 0x0 PUSH2 0xBD8 PUSH1 0x18 DUP4 PUSH2 0x9AB JUMP JUMPDEST SWAP2 POP PUSH2 0xBE3 DUP3 PUSH2 0xBA2 JUMP JUMPDEST PUSH1 0x20 DUP3 ADD SWAP1 POP SWAP2 SWAP1 POP JUMP JUMPDEST PUSH1 0x0 PUSH1 0x20 DUP3 ADD SWAP1 POP DUP2 DUP2 SUB PUSH1 0x0 DUP4 ADD MSTORE PUSH2 0xC07 DUP2 PUSH2 0xBCB JUMP JUMPDEST SWAP1 POP SWAP2 SWAP1 POP JUMP JUMPDEST PUSH32 0x496E73756666696369656E742062616C616E6365000000000000000000000000 PUSH1 0x0 DUP3 ADD MSTORE POP JUMP JUMPDEST PUSH1 0x0 PUSH2 0xC44 PUSH1 0x14 DUP4 PUSH2 0x9AB JUMP JUMPDEST SWAP2 POP PUSH2 0xC4F DUP3 PUSH2 0xC0E JUMP JUMPDEST PUSH1 0x20 DUP3 ADD SWAP1 POP SWAP2 SWAP1 POP JUMP JUMPDEST PUSH1 0x0 PUSH1 0x20 DUP3 ADD SWAP1 POP DUP2 DUP2 SUB PUSH1 0x0 DUP4 ADD MSTORE PUSH2 0xC73 DUP2 PUSH2 0xC37 JUMP JUMPDEST SWAP1 POP SWAP2 SWAP1 POP JUMP JUMPDEST PUSH1 0x0 PUSH2 0xC85 DUP3 PUSH2 0x8E2 JUMP JUMPDEST SWAP2 POP PUSH2 0xC90 DUP4 PUSH2 0x8E2 JUMP JUMPDEST SWAP3 POP DUP3 DUP3 MUL PUSH2 0xC9E DUP2 PUSH2 0x8E2 JUMP JUMPDEST SWAP2 POP DUP3 DUP3 DIV DUP5 EQ DUP4 ISZERO OR PUSH2 0xCB5 JUMPI PUSH2 0xCB4 PUSH2 0xA28 JUMP JUMPDEST JUMPDEST POP SWAP3 SWAP2 POP POP JUMP JUMPDEST PUSH32 0x4E487B7100000000000000000000000000000000000000000000000000000000 PUSH1 0x0 MSTORE PUSH1 0x12 PUSH1 0x4 MSTORE PUSH1 0x24 PUSH1 0x0 REVERT JUMPDEST PUSH1 0x0 PUSH2 0xCF6 DUP3 PUSH2 0x8E2 JUMP JUMPDEST SWAP2 POP PUSH2 0xD01 DUP4 PUSH2 0x8E2 JUMP JUMPDEST SWAP3 POP DUP3 PUSH2 0xD11 JUMPI PUSH2 0xD10 PUSH2 0xCBC JUMP JUMPDEST JUMPDEST DUP3 DUP3 DIV SWAP1 POP SWAP3 SWAP2 POP POP JUMP INVALID LOG2 PUSH5 0x6970667358 0x22 SLT KECCAK256 PUSH12 0xA1C6914CABDDE873D0AFD7E5 0xD6 0xCE SWAP15 MULMOD BLOCKHASH 0xF8 0xD1 0x49 SWAP2 0x2E 0xD5 0xB5 ADDMOD 0xA5 0x25 PUSH26 0x5E0D5764736F6C63430008120033000000000000000000000000 "
				},
				"gasEstimates": {
					"creation": {
						"codeDepositCost": "682000",
						"executionCost": "715",
						"totalCost": "682715"
					},
					"external": {
						"addToPool(uint256,uint256)": "infinite",
						"initializeTokens(address,address)": "infinite",
						"swapTokens(uint256,address,address)": "infinite",
						"withdrawFromPool(uint256,uint256)": "infinite"
					}
				},
				"methodIdentifiers": {
					"addToPool(uint256,uint256)": "7364fae8",
					"initializeTokens(address,address)": "1b542d74",
					"swapTokens(uint256,address,address)": "f70d1d98",
					"withdrawFromPool(uint256,uint256)": "ef1b3166"
				}
			},
			"storageLayout": {
				"storage": [
					{
						"astId": 83,
						"contract": "contracts/LiquidityPool.sol:LiquidityPool",
						"label": "token1",
						"offset": 0,
						"slot": "0",
						"type": "t_contract(IERC20)77"
					},
					{
						"astId": 86,
						"contract": "contracts/LiquidityPool.sol:LiquidityPool",
						"label": "token2",
						"offset": 0,
						"slot": "1",
						"type": "t_contract(IERC20)77"
					},
					{
						"astId": 88,
						"contract": "contracts/LiquidityPool.sol:LiquidityPool",
						"label": "token1Count",
						"offset": 0,
						"slot": "2",
						"type": "t_uint256"
					},
					{
						"astId": 90,
						"contract": "contracts/LiquidityPool.sol:LiquidityPool",
						"label": "token2Count",
						"offset": 0,
						"slot": "3",
						"type": "t_uint256"
					},
					{
						"astId": 92,
						"contract": "contracts/LiquidityPool.sol:LiquidityPool",
						"label": "fixedConstantSupply",
						"offset": 0,
						"slot": "4",
						"type": "t_uint256"
					}
				],
				"types": {
					"t_contract(IERC20)77": {
						"encoding": "inplace",
						"label": "contract IERC20",
						"numberOfBytes": "20"
					},
					"t_uint256": {
						"encoding": "inplace",
						"label": "uint256",
						"numberOfBytes": "32"
					}
				}
			},
			"userdoc": {
				"kind": "user",
				"methods": {},
				"version": 1
			}
		}
	}
}